:1000000002073C01020302010807030231AEC11FCF
:1000100041000000C114C1174100570041005800C1
:10002000C12341004E00001F050E080231A33236E5
:100030002030322032352D31302035320058524EAA
:100040005547000229AB020407E86480F8E933E869
:100050003360110460F0ED33EC337009E8FCE9FD26
:10006000EAFEEBFF220460DED3EB9FEA9EE99DE807
:10007000C2E78CF0C2F795F0400CE8CCF8E9CDF976
:10008000EACEFAEBCFFB1203D285D0F0580470030E
:1000900020D5B3E80470075002B2D502041192D5FE
:1000A000EC0460F7E4CCC0E0C398F8603B941860BF
:1000B00008400DD0E0FB0203E9E4FBFAC9FC80280C
:1000C000E830E406E4C9FBE4CAFCE830E305E4C92F
:1000D000CACBFCE854076010F8C3E913F9EA13FA35
:1000E000EB13FBEC13FCD8F130F52FC3E49CFCEFD1
:1000F0009BFFEE9AFEED99FDD0E0FBEF4E4D4C706C
:100100001222DB0302040EEC2CFCEF33FFEE33FE75
:10011000ED33FDED30E7EB0203E9EF2BFFEE3AFEA6
:10012000ED39FDD0E0FB50130BBB0003020411EDD1
:1001300013FDEE13FEEF13FFEC13FC0203E9EC4D8D
:100140006011E8497017ED33EC3304600DE4FCFFF7
:10015000FEFD22E933E8330470F80204071203D2EB
:1001600058046009E4CC2481500628500902041187
:1001700028400302040EC0E0EB4A7044B98006D068
:10018000E0FB0203FDEF4E701CBD8008EBFFEAFEB2
:10019000E9FD80EBE98DF0A4FEE5F0020227E9CD50
:1001A000F9EAFEEBFFEF89F0A4FCE5F0CE89F0A4BC
:1001B0002EFFE435F0CD89F0A42DFEE435F0806704
:1001C000EF4E7005BD80D780C3EF8BF0A4ACF0EE8E
:1001D0008BF0A42CFCE435F0F8EF8AF0A42CE5F0C9
:1001E00038FCE433CB8DF0A42CFCE5F03BF8EE8A30
:1001F000F0A42CFCE5F038F8E433CF89F0A42CFC13
:10020000E5F038CF3400CE89F0A42FFFE5F03EFEB4
:10021000E433C98DF0A42EFEE5F039CD8AF0A42F89
:10022000FFE5F03EFEE43DFD33D0E0FB50070BBBA5
:10023000000F020411EC2CFCEF33FFEE33FEED3324
:10024000FD0203E9020411EC5D046005E859047045
:10025000030204071203D2580460F6EC4860F2EC83
:100260007004FDFEFF22C860DB2481C85009C398DA
:100270006002500602040E9850CAF582E9294B4AE2
:100280007005AB820203FD75F0007C1A7880C3EF25
:100290009BEE9AED99400DC3EF9BFFEE9AFEED9910
:1002A000FDE842F0DC23ACF0D0E0FFD0E0FED0E08F
:1002B000FDAB8220E7101BEB60BAEC2CFCEF33FFA8
:1002C000EE33FEED33FD0203E9E803F830E705C045
:1002D000F075F000EF2FFFEE33FEED33FD40B83048
:1002E000E7C280AA74F8CC6480CCC86480C8F58268
:1002F00004604FC3EB9FF5F0EA9E42F0E99D42F0A7
:10030000E89C45F0603C501DE5825FFFE582D31319
:10031000CB5BCBF42B5582FB50280ABA002409B9D9
:10032000002008801DE5825BFBE582D313CF5FCF01
:10033000F4C3132F5582FF50090EBE00050DBD00FA
:10034000010CC3EB9FF5F0EA9E42F0E99D42F0E814
:100350009C45F06007CC4820E701B3EC2275F02003
:10036000800E75F010800575F0087D007E007F001E
:100370003392D530D5031206A7EC334010EF33FF8C
:10038000EE33FEED33FDEC33FCD5F0ED22E5F02449
:100390007EA2D513CC92E7CDCEFF22EDD2E7CD33AE
:1003A000EC3392D524814006E4FFFEFDFC22FCE400
:1003B000CFCECDCC24E0501174FF80EDC3CC13CC54
:1003C000CD13CDCE13CECF13CF0470F030D5DE02D7
:1003D00006A7E9D2E7C933E833F892D5EDD2E7CDE5
:1003E00033EC33FC5002B2D522EC30E7100FBF00E3
:1003F0000C0EBE00080DBD00040BEB6014A2D5EB83
:1004000013FCED92E7FD2274FFFCFDFEFF22E48069
:10041000F8A2D574FF13FC7D80E480EFC2D530F7DD
:1004200007B2D563F0FF05F030E70CB2D5F40484D1
:1004300063F0FF05F080018430D502F40422BB0193
:100440000689828A83E0225002E722BBFE02E32271
:1004500089828A83E49322BB010CE58229F582E537
:10046000833AF583E0225006E92582F8E622BBFEB6
:1004700006E92582F8E222E58229F582E5833AF54C
:1004800083E49322BB010689828A83F0225002F71B
:1004900022BBFE01F322EF8DF0A4A8F0CF8CF0A4D4
:1004A00028CE8DF0A42EFE22BC000BBE0029EF8DBD
:1004B000F084FFADF022E4CCF875F008EF2FFFEEEA
:1004C00033FEEC33FCEE9DEC984005FCEE9DFE0FF8
:1004D000D5F0E9E4CEFD22EDF8F5F0EE8420D21C53
:1004E000FEADF075F008EF2FFFED33FD400798509B
:1004F00006D5F0F222C398FD0FD5F0EA22C2D5EC62
:1005000030E709B2D5E4C39DFDE49CFCEE30E7156D
:10051000B2D5E4C39FFFE49EFE1204A8C3E49DFD90
:10052000E49CFC80031204A830D507C3E49FFFE4D9
:100530009EFE22BB0110E58229F582E5833AF58310
:10054000E0F5F0A3E0225009E92582F886F008E6FC
:1005500022BBFE0AE92582F8E2F5F008E222E583F3
:100560002AF583E993F5F0A3E99322BB010A898276
:100570008A83F0E5F0A3F0225006F709A7F01922CC
:10058000BBFE06F3E5F009F31922E88FF0A4CC8B4B
:10059000F0A42CFCE98EF0A42CFC8AF0EDA42CFC39
:1005A000EA8EF0A4CDA8F08BF0A42DCC3825F0FD78
:1005B000E98FF0A42CCD35F0FCEB8EF0A4FEA9F071
:1005C000EB8FF0A4CFC5F02ECD39FEE43CFCEAA4BD
:1005D0002DCE35F0FDE43CFC2275F008758200EF6D
:1005E0002FFFEE33FECD33CDCC33CCC58233C58265
:1005F0009BED9AEC99E58298400CF582EE9BFEED1E
:100600009AFDEC99FC0FD5F0D6E4CEFBE4CDFAE4EC
:10061000CCF9A88222B800C1B90059BA002DEC8BE0
:10062000F084CFCECDFCE5F0CBF97818EF2FFFEEBC
:1006300033FEED33FDEC33FCEB33FB10D703994075
:1006400004EB99FB0FD8E5E4F9FA227818EF2FFFB5
:10065000EE33FEED33FDEC33FCC933C910D7059BF7
:10066000E99A4007EC9BFCE99AF90FD8E0E4C9FA53
:10067000E4CCFB2275F010EF2FFFEE33FEED33FDDF
:10068000CC33CCC833C810D7079BEC9AE899400A02
:10069000ED9BFDEC9AFCE899F80FD5F0DAE4CDFB80
:1006A000E4CCFAE4C8F922C3E49FFFE49EFEE49D93
:1006B000FDE49CFC22EB9FF5F0EA9E42F0E99D42AE
:1006C000F0EC6480C864809845F022EB9FF5F0EA76
:1006D0009E42F0E99D42F0E89C45F022E8600FEC74
:1006E000C313FCED13FDEE13FEEF13FFD8F122E46C
:1006F00093FC740193FD740293FE740393FF22EC48
:10070000F0A3EDF0A3EEF0A3EFF022A8828583F032
:10071000D083D08212072212072212072212072248
:10072000E473E493A3C583C5F0C583C8C582C8F04C
:10073000A3C583C5F0C583C8C582C82278FFE4F687
:10074000D8FD9000007F007E04E4F0A3DFFCDEFA19
:10075000758151020791020A3EE493A3F8E493A342
:100760004003F68001F208DFF48029E493A3F854F3
:1007700007240CC8C333C4540F4420C8834004F476
:1007800056800146F6DFE4800B0102040810204089
:100790008090000EE47E019360BCA3FF543F30E5DF
:1007A00009541FFEE493A360010ECF54C025E060FE
:1007B000A840B8E493A3FAE493A3F8E493A3C8C5CC
:1007C00082C8CAC583CAF0A3C8C582C8CAC583CABD
:1007D000DFE9DEE780BEC2D5E830E70FB2D5E4C37B
:1007E0009BFBE49AFAE499F9E498F8EC30E717B245
:1007F000D512080C120615E4C39BFBE49AFAE4999F
:10080000F9E498F8800312061530D50DE4C39FFF74
:10081000E49EFEE49DFDE49CFC220012002B0010EF
:10082000DBD6000FCC1E000ECF6C000DE44B000D8C
:100830000965000C3D80000B7F7C000ACE50000A49
:10084000290700098EC30008FEB50008781F0007BD
:10085000FA52000784AE0007169D0006AF97000607
:100860004F1C0005F4B800059FFE0005508B0005E5
:1008700006020004C00D00047E5D000440A90004CF
:1008800006AC0003D02700039CE100036CA1000329
:100890003F37000314720002EC280002C62F00024A
:1008A000A2630002809F000260C3000242B1000206
:1008B000264C00020B7B0001F2230001DA2E00011E
:1008C000C3870001AE19000199D2000186A0000182
:1008D00074720001633A000152EA000143720001A0
:1008E00034C8000126DF000119AC00010D2500010C
:1008F0000141F5F5EB3AE107D755CE1DC558BD00CE
:10090000B50EAD7FA64C9F7098E792AC8CBB87115B
:1009100081AA7C82779772E46E676A1E6606621C03
:100920005E5F5ACB575F541950F84DF84B1A485A2E
:1009300045B8433340C83E773C3E3A1D3812361D19
:10094000343B326D00000000000000000000000099
:100950000000000000010001000000000100000094
:10096000000000000000000000000207D0007D0C25
:10097000800001010200000003007D00000B220145
:100980000001030204000400FA00000B54010001FE
:10099000030105030501F400000BB8010101040186
:1009A00006040603E800000C1C010101050107050F
:1009B0000707D000000C80010101060103060808AA
:1009C000FC00000D16000100080000070905780072
:1009D000000B2200010009020C0D0A003200000B7E
:1009E000220000010A0203000B08FC00960D16000D
:1009F00001010A0200000C09C400140BB800010038
:100A00000C020D090D09C400000BB80001000D0215
:100A1000090C0E02BC00000B220000000E000000BA
:100A200005060401FF0B02030003FF00041F00067C
:100A3000D00008030105000201FFFF050002122F8C
:100A4000EC121F8C1231B4121BF3122873121CD536
:100A5000122DEBD21912373CC220F1FBD1CF12205C
:100A60003812210612235E12135C122BEA301EEAA2
:100A7000201F1512347C123BFC12219E51A6121E1F
:100A800015123C19D21F801A1238481229F7123E4B
:100A9000D2123E1B123E5C123D22123C22123AEA56
:100AA000C21FC21E80B4200C0AC20B12369B918357
:100AB000C20E22300F028167123ADA400281677556
:100AC0002902752AEE300B08752901752AF4800673
:100AD000752902752AEED3E50A942D917B500261A7
:100AE000CFD3E50A9434917B4002D20BE50A24D39C
:100AF000F528E50934FFF5279000447418D1C5FFA7
:100B000064086004EFB40B1AD390003EE094229185
:100B100074948B400DAE27AF287C007D14F1E5F076
:100B200061C2D3E5289402E5276480948050026175
:100B3000C212043EFF64086004EFB40B09123F5276
:100B40007C037DE88007123F527C057D141204FD72
:100B50008E258F26E52530E705E4F525F5260526C3
:100B6000E526700205259168985004F1B58027E5C7
:100B70002854FC45276014AE25AF26E5282402FD45
:100B8000E43527FC1204968E258F26AC27AD28AEBF
:100B900025AF26F1E5F0900041E0247AFF90004077
:100BA000E034FEFED3900046E09FEE6480F89000B3
:100BB00045E06480984005EEF0A3EFF090004474A7
:100BC0003CF09168987D0050027D017F018164C3F3
:100BD000E50A942D917B40028167C3742D950AF537
:100BE00028E49509F527D3E5289404E52764809443
:100BF000804002801BE52A2438FFE52934FFFED31C
:100C000090003EE09FEE9171984005E4F52B800343
:100C1000752B01900044E0600414F0803AE52B60ED
:100C200004F1B58020E52854FE4527600FC39000ED
:100C300046E09528F0900045E09527F0900045E0CB
:100C400030E7029182300B0FD390003EE094EE919A
:100C50007494824002C20B900045E030E70291821A
:100C6000AD2BE4FF12361622C390003EE0952AE534
:100C7000296480F890003DE0648022E50964809456
:100C80008022E4900045F0A3F022900001E014B42B
:100C90000B004002A1DC900CA475F003A4C58325D1
:100CA000F0C58373020CC5020CD5020D1F020D2581
:100CB000020D3C020D42020D5F020DAB020DC0029F
:100CC0000D66020D74E54C6002A1DC754C0F9000BE
:100CD000017402F0221239838F1FE54C6002A1DCFF
:100CE000900010E0FEA3E0FFD394E7EE64809483CD
:100CF0004022F1F4D3ED9404EC64809480400BE046
:100D0000240AF0900010E03400F0B1DD7D0A1204F6
:100D1000FD1238EDB1DD7D641204FD7D03803D7D63
:100D2000047F01803EB1DD7D641204FD900010EC73
:100D3000F0FEA3EDF0FFF1F47D0580207D067F023B
:100D4000802130140A754C0A900001740AF022B117
:100D5000DD7D0A1204FDAE04AF057D070238FE7D7D
:100D6000087F030237BAE54C7072900001740BF0F3
:100D7000754C1F22E54CC394195027E54C54F8607C
:100D800021C3E50A942D917B5005751F038016C37E
:100D9000E50A9437917B5005751F028008751F0185
:100DA0008003E4F51FE54C7033800EE54C702DD1C7
:100DB000C6700690000B7412F09000017409F022C6
:100DC000C214E4900010F0A3F090000BE060030266
:100DD0003919123889EF7004900001F02290001048
:100DE000E0FEA3E0FF7C0022D1C6FFC37001D392D6
:100DF0001AEF64086005D1C6B40B0990003DB1E05C
:100E00007D0A800790003DB1E07D0F1204FDC374A0
:100E1000749FF528740E9EF527C3E52894E4E52712
:100E20006480948C500675270C7528E4E54D146099
:100E30001C14603E14605F2403706EC390000FE0CA
:100E40009528E527D1BB985060754D0122301A10C6
:100E5000E52824FAFFE43527D1B3984003E4F54DA3
:100E6000E5282438FFE52734FFFEC3D1B598503973
:100E70008034301A10E5282432FFE43527D1B398A6
:100E80004003754D01C390000FE09486D1BE948B52
:100E90005017754D0322301A10D390000FE0948044
:100EA000D1BE948C4003754D022212277DEF24326F
:100EB000FFE43EFED390000FE09FEE6480F89000C8
:100EC0000EE0648022F0AB1CAA1DA91E02043ED1D4
:100ED000C6B4020C90001AE0F525A3E0F5268008C0
:100EE000122FD6F52685F02590000EE0FEA3E0FF38
:100EF000D394BEEE6480948A4010D3EF12358C40B8
:100F0000028001D39215C2168004C215D216B1E830
:100F1000E51FD39406502490004DE06003023F008B
:100F2000900001E06002818A90000BE07007D1C65A
:100F3000D394014003023938E4F51F22123889EFB7
:100F400024FE6018146018146018146025146034AE
:100F500024057060D1C6705C7F0A80250238AD021E
:100F600038C5D1C6704E123F97D1BE948B400C024B
:100F70003F8CD1C6703E1235A05004751F07227FEA
:100F80000E022326D1C6702CA20192187F337E3325
:100F90007D8B1235A660064004D2018007D3300154
:100FA00001C39201A218300101B350081239C8C21E
:100FB0001A1231F122123705400280151236F4EF71
:100FC00094C0EE648094837E0050047F0180027F91
:100FD00000EF4E700F900042B1E07D0C1204FDF165
:100FE000E812369A22120496900046E02FF0900004
:100FF00045E03E227C007D0A0204FDE508B40303BF
:10100000E4F508E508146038147002018E147002CB
:1010100001C52403600201C2D21A11E4E4F52AAF2B
:101020002AEF3395E0FE74272FF58274003EF58396
:10103000E493FD11D9EDF0052AE52AB404E1807DA1
:10104000E4F52A11D2E0FFC364809480400FD3EF0F
:1010500064809496400EEF6480949F5007052AE5C3
:101060002AB404DFC3E52A64809484501C11D2E0C2
:10107000F529640E6005E529B40804C21A11E4AF2D
:101080002912314D750802803C7508038037752E92
:1010900000752F00753029712D122B43EF4E6025FE
:1010A000AD29AF28AE2711F9E4F52A11D2E0B52910
:1010B0000511D974FEF0052AE52AB404EE7508017D
:1010C0008003E4F508302009E50864036003020F9B
:1010D000FB22AF2AEF3395E0FE74222FF5827400D5
:1010E0003EF5832253DE7F007F00201A027FA0900E
:1010F000F692EFF00043DE80228E2B8F2C8D2D9008
:10110000F692E030E708E4FFFEFD7C408008AF1A6D
:10111000AE19AD18AC17512CAC2BAD2CEC120362F0
:10112000C004C005C006C007E4FBFA79807845AF6B
:1011300035AE34AD33AC32120247D003D002D00109
:10114000D00012013E8F398E388D378C36E52D2434
:10115000FB700221D624FD606624FA602A24EF6029
:1011600002412BAC2BAD2CEC120362A804A905AAFA
:1011700006AB077F9A7E997D997C451202478F1AAC
:101180008E198D188C172275312D7530A6752F3359
:10119000752E3E51358F168E158D148C133001121D
:1011A000E4FBFAF978401202478F128E118D108CF1
:1011B0000F2285161285151185141085130F2275BF
:1011C0003197753071752FCB752E3D51358F0E8E41
:1011D0000D8D0C8C0B22AB39AA38A937A836AF1A63
:1011E000AE19AD18AC17120049C004C005C006C046
:1011F00007E4FFFE7DEB7C43AB39AA38A937A8365C
:1012000012013ED003D002D001D000120247512C6F
:10121000E4FBFA797A784412013E512C12039B7B4D
:10122000007A00791B51488E098F0A228F358E343F
:101230008D338C3222AB31AA30A92FA82EAF39AE14
:1012400038AD37AC360202478B3A8A3B893C8F4037
:101250008E3F8D3E8C3D7F2B7E007D127C00711A6F
:10126000D31206CB400771237EFF7FED22E47F6D12
:101270007E327118C31206CB50067123FE7F4B22BB
:10128000AB3AAA3BA93C7401120484E47FF57EF5D5
:101290007118D31206CB402EE4F541E54125E02537
:1012A000E0241AF582E43408F5831206EF711AC3BC
:1012B0001206CB400AE54124EDFFE434FFFE22058F
:1012C00041E541B436D5E4F541E54125E024F2F5A8
:1012D00082E43408123FAAE48F458E44F543F54278
:1012E000E545F545E544F544E4F543F542AF40AE48
:1012F0003FAD3EAC3DAB45AA44A943A842D312063C
:10130000CB5009E5412423FFE433FE220541E541AA
:10131000B42EB67123FEFF22FDFCAB40AA3FA93ECE
:10132000A83D22AB3AAA3BA93CE40204847B007AA4
:1013300000792722712D752F057F621230495002E6
:10134000C3223018055327FB80034327047B05ADD8
:10135000277F621230E65002C322D322900040E081
:10136000FAA3E0FBD39400EA64809480401712351E
:10137000B38E258F26123692FFC312358C500A8EFB
:10138000258F2680048A258B26E550D394024010B1
:10139000E5264525700AE550B40D02D29475500239
:1013A000E550B40F004002C1B39013B0F828287381
:1013B00002141E0213FA0213DD0214360214520242
:1013C000147A0214AE0214D00214EA0215170215A0
:1013D0006F02164002166502167602169A900036C3
:1013E00012070B00000000123F9FD211C218713487
:1013F00090003C740CF07550012290003CE0600DB0
:10140000E4FFFE7D20F15360044002C1B3C2191213
:101410001AFEF1F6C2B0D1B4C294E4F55022E4123F
:101420003FECF0D3E5269400E525648094805002DB
:10143000C1B37550032290003DE4F0A37423F0FF84
:101440007E00123ACA123A1590003F740FF07550A0
:101450000422D1B4301102C1B390003FE014F06017
:1014600002C1B3D2B07F01FED1B8D219121AFEE484
:1014700090003F123FE47550052290003CE070025E
:10148000806E90003FE0B40818D21871344002C159
:10149000B390003C7404F090003F7432F075500635
:1014A000227BFF7A0A79201230885065805C900098
:1014B0003CE070047F05C1B190003FE0B4410FD221
:1014C000947550077432F090003C7404F022801838
:1014D00090003CE070047F06C1B190003FE0B43C56
:1014E00007755008E4023FE4E16090003CE07004BE
:1014F0007F04C1B190003FE0B40204755009227B23
:10150000FF7A0A7938123088500790003FE004F0E3
:10151000227F017E00C1B8301102C1B3123FDCFB53
:101520004A700575500B8044AE25AF267C007D02C5
:101530001204FDEF240AF526E43EF525D3E52694B2
:10154000FAE5256480948040067525007526FAC367
:10155000EB9526EA95255005121FE6800FC39000F3
:101560003BE09526F090003AE09525F0D21122302C
:101570001102C1B3123F52C3E5269FFDE5259EFC33
:10158000D3ED9458EC648094824002D2222022024F
:10159000C122EF4E701EC3E526942CE5256480948D
:1015A0008190003D5005123FD480647401F0A37413
:1015B0002CF0805B30050890003EE0243280181249
:1015C0000EC624F7602B24FC6017146024240C70D2
:1015D0003090003EE02402F090003DE03400F080C6
:1015E0002E90003EE024E8F090003DE03403F080CF
:1015F0001E90003EE02490F090003DE03401F08029
:101600000E90003EE004F0700690003DE004F0C350
:1016100090003EE09526E525120C7198400AC22202
:10162000800390003D123FD4D211123F52123ACAA9
:1016300090003DE065257004A3E065267075806B21
:10164000E526B4FF0EE525B4FF0975500C90003F68
:101650007464F090003DE065257004A3E0652660A9
:101660005275500A22123A15C2187134500475503E
:101670000D227F04803BF14D60054003D38001C300
:101680004002C294E526F47003E525F46025D29467
:1016900090003F7464F075500E22D2187134500FD0
:1016A0007F057E00D1B8121FE6D21175500B227F44
:1016B00004F1D5227F017E008E298F2AE4F52FE5E3
:1016C0002A45297002E14C052FAE29AF2A122B348E
:1016D000E47BA07A0FF9F812058A8F2E8E2D8D2CBF
:1016E0008C2BC007AF2FAB07E4FAF9F8D00712062E
:1016F000158F2E8E2D8D2C8C2BE47FFF7EFFFDFC15
:10170000AB2EAA2DA92CA82BD31206CB50B9C3748B
:10171000FF952EF52E74FF952DF52DE4952CF52CC7
:10172000E4952BF52BAF2EAE2DAD2CAC2B780812FB
:1017300006DC8F8CE52EFF8F8AC21C438810E5885B
:1017400020E503301CF85388CFD52FD9227F9A7E0D
:10175000997D497C40AB0EAA0DA90CA80B0202E4AE
:1017600012310DEF602524FE604B14605A14604561
:1017700014605D2404705D90003CE020E356123F4D
:10178000BCF1556002504D7F0780477FCD7ECC7DF8
:101790002CF1534006F14D6010400E90003F743222
:1017A000F020110B123A15800690003FE004F07F04
:1017B000017E00C1B8E550B406047F058014E490B2
:1017C000003FF07F06800BE490003FF07F0980022D
:1017D0007F04F1D5228F2790003FE06009D1B490BB
:1017E000003FE014F022C294AF271220F4E49000EE
:1017F0003CF0755001227F027E00C1B81218057BB3
:10180000007D047F038F2C12043EFF1460131460CC
:10181000251460391460362404705651E9F1B28001
:101820002751E9F5827401F531858232E582F4F5BC
:1018300082753300801251E9F4F58275310085829A
:1018400032EDF5827401F5338582348024EDF1B2F6
:10185000858234EDF5827401F52D85822EEFB40476
:1018600007EDFF7401FE8005EDF4FF7E008E2F8FE3
:10187000309000011204577007EDFF7401FE8005DF
:10188000EDF4FF7E008E358F369000021204577003
:1018900007EDFF7401FE8005EDF4FF7E00E52C14DA
:1018A0007002212E14700221A81470024122240318
:1018B000600241A6E52DAB9A30E006E52E4BFD8097
:1018C00004E52E5BFD8D9AE52F30E00790F009517D
:1018D000BC800590F00951B590F009EDF0E531308C
:1018E000E00451CB800590F00A51AE90F00AEDF083
:1018F000E53330E00451C3800590F00B51A790F020
:101900000BEDF0EE30E00451DA800890F00CE0FBD3
:10191000EF5BFD90F00CEDF0E53530E00451E18037
:101920000590F00D51D3AF0590F00DEDF022E52DAF
:10193000ABA130E006E52E4BFD8004E52E5BFD8D6E
:10194000A1E52F30E00790F01951BC800590F01907
:1019500051B590F019EDF0E53130E00451CB800540
:1019600090F01A51AE90F01AEDF0E53330E00451EA
:10197000C3800590F01B51A790F01BEDF0EE30E016
:101980000451DA800890F01CE0FBEF5BFD90F01C46
:10199000EDF0E53530E00451E1800590F01D51D3C4
:1019A000AF0590F01DEDF022E52DABA230E006E58D
:1019B0002E4BFD8004E52E5BFD8DA2E52F30E00768
:1019C00090F02951BC800590F02951B590F029ED97
:1019D000F0E53130E00451CB800590F02A51AE9013
:1019E000F02AEDF0E53330E00451C3800590F02B90
:1019F00051A790F02BEDF0EE30E00451DA80089022
:101A0000F02CE0FBEF5BFD90F02CEDF0E53530E0E5
:101A10000451E1800590F02D51D3AF0590F02DEDEC
:101A2000F022E52DABA330E006E52E4BFD8004E56A
:101A30002E5BFD8DA3E52F30E00790F03951BC807F
:101A40000590F03951B590F039EDF0E53130E00412
:101A500051CB800590F03A51AE90F03AEDF0E5337D
:101A600030E00451C3800590F03B51A790F03BED6E
:101A7000F0EE30E008A3E0FDEF4DFF800890F03C71
:101A8000E0FDEF5DFF90F03CEFF0E53530E009A3BD
:101A9000E0FDE5364DFF800990F03DE0FDE5365D67
:101AA000FF90F03DEFF022E0FBE5345BFD22E0FB30
:101AB000E5325BFD22E0FBE5305BFD22E0FBE5303B
:101AC0004BFD22A3E0FBE5344BFD22A3E0FBE53216
:101AD0004BFD22E0FBE5365BFD22A3E0FBEF4BFD77
:101AE00022A3E0FBE5364BFD22EDF4F58275830081
:101AF00085832D85822E85832F858230ED227F037D
:101B00003019027F018F29752A01752B017B003066
:101B100019027B0C7D0591B97D2011057B003019E0
:101B2000027B0D7D0691B97D401105301906F1D972
:101B30007F05E1D675F580000075F28022E4F52678
:101B4000F527F528FB7A0079267D047F021217FC21
:101B50007B007D20E4FF11057B017D05E4FF71889A
:101B6000718175DF4075DE60E4F5E9F5D1F5D37577
:101B7000D50F75D4FF90F69274A0F0F16A43DE8021
:101B8000227D027F0271880FEB64026065EB6403C3
:101B90006060EB6419605BEBD3941C5055EF1460EC
:101BA0001514602314603124037047EDD39405505D
:101BB00041ED2400802BEDD394075036EDC3940300
:101BC0004030ED2410801AEDD394065025EDC394D7
:101BD00001401FED24208009EDD394065014ED241C
:101BE00030F52DE434F0F52CEB541F852D82852C37
:101BF00083F022713D9121752603E4F527752801B4
:101C0000C283C281FB7D03FF71887D0171887A00E8
:101C100079267D08F137E4FF1105E4F192F0F51F14
:101C200022F19AC280C2B1F1307D01E4FFF1377F29
:101C300003110590F120E4F0A37411F090F12374E6
:101C400001F090F125F090F12A74FFF090F12EF060
:101C500090F122E4F090F1277411F0A3F090F1607C
:101C6000E4F090F165F090F1647411F090F131744A
:101C70002EF090F13074DFF090F1397417F090F19C
:101C800038746FF090F141E4F090F149F090F14038
:101C9000F090F148F090003612070B00000000F1C0
:101CA000E6C213C21190F126741DF01237E37B12C5
:101CB000F1647B16E41DFF61887F0271887B007AE6
:101CC00000792922F18C71F391D5120FFBC2191200
:101CD000373CC22022F19AC2B0C2A6C2A5C294F17A
:101CE000307D107F0111057B007D017F031105C24E
:101CF000B01217F6C294C21951FEE4900040F0A34E
:101D0000F090003DF0A3F0123FECF0F550C222221B
:101D1000E4F5DE90F692F0F16AE4FB71817526033A
:101D2000E4F527F5287A0079267D041F1217FCC2F6
:101D3000197D027F03B13BC2197F02EF1460361494
:101D4000605F147002A1CD24036002A1F0EDD39472
:101D5000054002A1F030190EA8057401088002C3E5
:101D600033D8FC428022A8057401088002C333D80E
:101D7000FCF4528022EDD394075075EDC3940340D8
:101D80006F30190EA8057401088002C333D8FC42D5
:101D90009022A8057401088002C333D8FCF4529045
:101DA00022EDD394065049EDC39401404330190EFF
:101DB000A8057401088002C333D8FC42A022A805FC
:101DC0007401088002C333D8FCF452A022EDD394EE
:101DD00006501D30190EA8057401088002C333D8BF
:101DE000FC42B0221229908002C333D8FCF452B0D6
:101DF00022202302D322713D120FFB7F9A7E997D10
:101E000039F1CB1202E45004C22371F7B110E4F5AA
:101E10004EF54FC322123DEBEF60031220DBD3E5FA
:101E20004F9400E54E94004009E54F154F700215A0
:101E30004E22D1D075250C43870443870200000051
:101E40000000001237F2EF60221231B4122998F12B
:101E5000A41216B4122038301E0AC21EB21830184E
:101E6000031238481237FE50E881C4C21890005F50
:101E7000E0600414F0803A200235D200D202F1DF93
:101E80001231B471F7751F08E51FB4080F301EF842
:101E9000B21830180312347CC21E80ECC218C21A69
:101EA0001231F1E4F5C853A8DFF13ED1F28002D23D
:101EB00018E52560041525800EB1F1400575250C47
:101EC0008005301802F18CE54F454E7002C1372273
:101ED000E4F5C853A8DFF149B110F13E91EFD1F21A
:101EE000E5BD20E70C75BC4275BD0F43BD3043BD59
:101EF000802290000EE0FCA3E0FDEC1203627B9ACE
:101F00007A99793978401202E46002502230061F33
:101F1000752601E4F527752801D1E0D223120EC6FB
:101F2000F130B401047D0880027D02E4FF11052236
:101F30007B007A0079262211057B007D0222C28374
:101F4000C281E4F51FF192F022E4FBF164E41DFF8D
:101F5000718890F121E4F090F126F090F125F09055
:101F6000F123F0227D017F0361887F0490002274B9
:101F7000FEF0A3DFFCE4F50890002612070B00003A
:101F8000000012319BA3F0A3F0D22022E4F5BDF5AE
:101F9000BC2290005AF09000592275260375270143
:101FA000752801227D087F011227F590005D74AA33
:101FB000F022F4F582758300858331858232858332
:101FC00033221222717F337E337D8B7C40AB12AA89
:101FD00011A910A80F228FF722E4F5F5F5F222904F
:101FE00000147403F022E490003AF0A3F022EF14FE
:101FF000600E14600F1460102403700FED42AC22C9
:10200000ED42AD22ED42AE22ED42AF22EF1460115F
:102010001460151460192403701CE5AC5D6017D3BF
:1020200022E5AD5D6010D322E5AE5D6009D322E507
:10203000AF5D6002D322C3227D087F01110C403ABC
:1020400090005DE0FF25E0F0309303E004F09000A5
:102050005DE0FCF46003EC702111DBE4F5B5BCFF3E
:1020600003C38001D392217B01BCFF027B027D036D
:102070007F011228177D08121FEE302108E5473036
:10208000E7037547807F822005027F85AC073021FA
:1020900025E546B50420D3E54964809480400BAF24
:1020A00049EF3395E0FE11CD8009E4F549754B0108
:1020B000754801E4F546202113E547B4840EE4F5A4
:1020C00047E5487004754A0122E4F54822E4F547E3
:1020D000F54AF549F548EF04F54B2290005F7496F8
:1020E000120EC5B40107754E01754FE022754E0002
:1020F000754F282290004DEF120EC5640160067FD7
:1021000001712611DB22E51B606BA20D921975256A
:1021100037317A920DA20992197525327526283128
:102120007D9209A20A9219752541752628317D9262
:102130000A300A067F0211F4800A90004DE0B402D2
:1021400003123EC951A6F1EF7003C20C22A20C92F9
:102150001975252D317A9218301803D20C222018C7
:1021600018900045E07002A3E0700E900042E0304D
:10217000E707C20C227F0111F422752628AF25EF54
:102180003395E0FED3123F6C4002D322AF26EF33EB
:1021900095E0FEC3123F6C5002C322A21922123AEC
:1021A000DA4006E490004FF02290004FE0C3940420
:1021B0005004E004F02290004EE0541FF525121F59
:1021C000C21202E4600640047F03801612310DEF54
:1021D000603514601114600E24FD602224027040EA
:1021E0007F0911F4803D7D04515B123FBC121755ED
:1021F00060074005752603802AE4F52680257D01C9
:10220000515B752602801C7FCD7ECC7DBC1217539E
:102210005005E4F52580047D02515B75260180039D
:10222000E4F525E526C43354E0452590004EF0C37F
:10223000E5256480948F4022E0C413540714600E97
:1022400014600F146010240370107F07800A7F0849
:1022500080067F0480027F0611F422AF2551628F31
:102260002522C3EF6480948F5004EF2DFF227F0F4F
:10227000227FCD7ECC7D4C1235A6601440127F9A11
:102280007E997D39123ABF1202E450047F0A11F49C
:102290007F667E667D46123ABF1202E46006400405
:1022A0007F0A11F422F0AB1CAA1DA91E228F275110
:1022B000A69000091204576002F13E120EC654FEA9
:1022C0006016120F3CE527B40102800A123ADA4088
:1022D000071235A05002D1D8900017E030E71A5409
:1022E0007F51A5123FB46011120EAA98400751A663
:1022F000123FB480027F047126900017E030E50F92
:1023000054DF51A590000D120457FF600271265151
:10231000A690000B120457600C5402FF90000A12A2
:102320000457FDF1A322AD07120EC66D602FF1EF29
:10233000FC121CBD122F998B2A8A2B892CE529604F
:102340001C122E5B852A1C852B1D852C1EEDD3941B
:1023500002400AEC6007123692FF1236A3221238AE
:102360000B4002C1D712387B8F25E5257005123747
:10237000FE5007F11BEF6002C1D7900014E0FFC3CD
:1023800094034006EFD394074003121FDF120EC6DA
:10239000F526900057E06002A144E5261470028102
:1023A000DE14700281ED24FA7002A10A24FD70028D
:1023B000A133240B6002A144300261E525B4051C61
:1023C000751F09C202123F97120EBE948B400690F1
:1023D00000137405F0C21A1231F1A144123889BFFA
:1023E0000124C390000FE09454120EBE948B50074A
:1023F000E4900021F0A144300702A1449000217430
:10240000A0F0D207A144300707E4900021F0C207F2
:102410001237FE4002A144751F07A14430001CE59D
:1024200025B40102800E12382D400281D990001788
:10243000E04440F0900014E0FFA10F20081412388F
:102440002D500F123F98120EBE948B4060123F8C9D
:1024500081D9300808F19C4004C208807CE525241D
:10246000FD601A14602B14604924FE6051146066EC
:1024700024077065900014E0FFD1F9805CD39000D0
:102480000FE094BE120EBE948A40047F09801A8029
:102490001C200919D390000FE09416120EBE948DE3
:1024A000400B123F81D2057F0B7126802C751F07D0
:1024B0008027200224751F08D202D2008011D33059
:1024C0000601C392067F013006027F03123716C24F
:1024D0001A1231F18003123D29120F3C8066123E20
:1024E000B0406112382D505C123EC980573008123E
:1024F000E490001EF0F19C400C122F4C4007C208E3
:102500008003122E8E123AFC803A300D067F04D1E1
:10251000F98031E5256402702B900012E0B40A04C2
:102520007F048005900012E0FFD1F990001274043E
:10253000F08011200D0A900015E07002A3E07004F5
:10254000D208D1D8120EC6B5260A900057E0700402
:10255000AF2551AD12383A300509120EC6640B6032
:1025600002C205900013E07009900021E0600A307B
:102570000707F1E874FAF0C1C2900057E060121248
:102580003D35EF60067E017F2CC1917EFF7FFFC14C
:10259000911239D25007F1E8741EF0C1C2120EC672
:1025A00024FE7002C14B24F97002C12C24FE60503D
:1025B00014603524FE6075046002C197D20F123C8E
:1025C0002BEF24FE600E2402701174FF900040F087
:1025D000A3F0C1C2F1E874C8F0C1C2C20F122DBF8E
:1025E000FF900040E5F0C1BE122CC8123F79F0D335
:1025F000948AEE6480948240028001D3920FC1C21B
:10260000F19C51A650059000018003900003120533
:1026100033FFAEF0123F79122DCBB50708EEB5F0BF
:1026200004D20FC1C2123F81C20FC1C2123C8DEF52
:102630006008122DBFFFAEF080047EFF7FFF123FC7
:1026400079F04EC37001D3920F8077C20F123FC44E
:10265000FF900018E0FCA3E0FDD39FEE6480F8EC4F
:102660006480989000404007EEF0A3EFF08005EC06
:10267000F0A3EDF090001EE0604830031012369297
:102680007802CEA2E713CE13D8F8FF80047E007F35
:102690001E900040EE8027122DBFFFAEF0D39401B4
:1026A000EE648094804011900041E094C2123E1488
:1026B00094815004D20F8002C20F900040EEF0A32C
:1026C000EFF0D3900041E094FC123E149488400750
:1026D0007408F0A374FCF022120EC6601B1460187C
:1026E000800051A69000071204576003123FCC30BF
:1026F0000002C200E4FF7126228F28AF28120EAA22
:10270000984004AF2861261528E528D3940250EBA1
:10271000120EC67004751F072280BD121FC212025E
:10272000E46018401620010FD2011239C8C21A12F3
:1027300031F1D2177F01227F0311F47F00222000A4
:102740003BEF640270362002337F08120EAA9840D5
:1027500027200924120EC6FFD394014005900012D1
:10276000EFF0900014E0FFD394024008EF9408507B
:1027700003123FCC7F0861267F07D1F922E4FE12C5
:102780003F5BB5070FEE75F00EA42453F582E434D9
:1027900009023FAA0EBE0FE7E4FEFF22E548C36030
:1027A00001D3228D287E02122F4C5004D2188004AF
:1027B000F19C921820160F7E0A301503301807E49A
:1027C00090005BF08003123AF390005BE0D39E40F0
:1027D00016EF60028006301805301602C1D8E4906A
:1027E000005BF0AF28712622900040E4F0A3229015
:1027F0000008020457EF14600F14601114601324D2
:10280000037013EDF452AC22EDF452AD22EDF4520C
:10281000AE22EDF452AF22EBD394035055EF146087
:102820001514602314603124037047EDD3940550D0
:1028300041ED2480802BEDD394075036EDC39403F3
:102840004030ED2488801AEDD394065025EDC394D2
:1028500001401FED24908009EDD394065014ED241F
:1028600098F529E434F0F528EB540385298285286E
:1028700083F022752501E4F526F527FB7D037F0112
:10288000121B887A0079257D081218057D087F01C2
:10289000121FEE7B027D03111743B9021220DB9059
:1028A000005D74FFF0E4F546F547F549F54AF54B50
:1028B00022EF14602214603D14605824037071EDFF
:1028C000D3940540028069ED248031458002C333F2
:1028D000D8FC55ACFC805DEDD394075006EDC39455
:1028E000035002804BED248831458002C333D8FC6D
:1028F00055ADFC803FEDD394065006EDC3940150D6
:1029000002802DED249031458002C333D8FC55AEB2
:10291000FC8021EDD3940640028015ED2498FBE461
:1029200034F0FA31908002C333D8FC55AFFC8004F8
:10293000E4FEFF22EC7003FEFF228B828A83E054C8
:1029400003FF7E0022FBE434F0FAA805740108229C
:102950007D037F0111B1EF64014E702FC221E54666
:10296000547FFFE4F546E5487004E54B6007E4F565
:102970004BF5488018EFC394055012C3E5496480B5
:1029800094885002054975478080023198021FA43F
:10299000AF05A80774010822D221E54730E7037587
:1029A0004780E54620E70375468022C0E0C0F0C0BE
:1029B00083C082C0D075D000C000C001C002C00377
:1029C000C004C005C006C007315075B500D007D09F
:1029D00006D005D004D003D002D001D000D0D0D092
:1029E00082D083D0F0D0E032C2AF007596AA75963F
:1029F0005575978080FE2290000AE0C394285050BD
:102A0000F1E4121FCDF1D091BF90000AE004F07103
:102A10001E2528FFEE3527FEED3526FDEC35257108
:102A200017712CAB28AA27A926A825C31206B550D2
:102A300005900002713B900004712FAB28AA27A9D2
:102A400026A825D31206B5407A900004713B807306
:102A5000711EFFC004C005C006C007900004E0FE60
:102A6000A3E0FBAA06EA3395E0F9F8712CEF2BFB03
:102A7000EE3AFAED39F9EC38F8D007D006D005D0A7
:102A800004C3EF9BFFEE9AFEED99FDEC9871177170
:102A90001EFFC006C007A3E024FEFFE434FFAB071F
:102AA000FA3395E0F9F8D007D0061207D6711890DE
:102AB0000006A3A3E0FFA3E090000ECFF0A3EFF089
:102AC00012379890000DE060215409FFBF090C7F78
:102AD000033001027F02123716800990000DE0B426
:102AE000010231E890000DE014F090000CE0FFB41A
:102AF00078057401F08009EF600690000CE004F0A6
:102B0000E54C6002154C900000E0600214F090006B
:102B10000BE0600214F022FC9000060206FF900019
:102B200006E0FCA3E0FDA3E0FEA3E022900002E0AB
:102B3000FEA3E0FFEE3395E0FDFC22E527F0A3E5E0
:102B400028F0228B2B8A2C892DE5DF30E102804290
:102B500090002BE004F0700690002AE004F0900052
:102B60002671DEAFDDEFFEADDCED7133EB2FFFEA5A
:102B70003EFEE93DFDE83CFC9000261206FFC390B6
:102B8000002BE0940A90002AE06480948050074370
:102B9000DF02E4FEFF229000267121FFE47B0AFAA7
:102BA000F9F81207D69000261206FF900026A3A37C
:102BB000E0FFA3E0AB2BAA2CA92DCF8FF012056B61
:102BC00090002CE0AB2EAA2FA930120484E49000D0
:102BD0002DF0FE7F0122E4FFFEFDFC900036E0F8C0
:102BE000A3E0F9A3E0FAA3E0FB2220110281BE30AA
:102BF000132D90F129E05411600281BE90F164E040
:102C000030100554EFF080034410F090F164E03090
:102C1000120554FEF080034401F0C211C2132212C7
:102C200038F671DB1202E4600C400A90003612079D
:102C30000B42C8000071D61202E4500A900036120E
:102C4000070B0000000090003AE0FEA3E0FFE4FC68
:102C5000FD7B6F7A17F9F8C31206B55003123F9F38
:102C600071D61202E460054003D38001C392129032
:102C7000003AE07002A3E0C36001D392107F007EAF
:102C80007C7D3B7C4671DB12013E91BF123AD21231
:102C9000024791BF12039BAD07AC06123FDCFBEA73
:102CA00090F149F0EB90F148F0ECFFEF90F141F03A
:102CB000ED90F140F0D21390F129E04411F0228F11
:102CC000288E278D268C2522B1BFFFAEF08E27F5EA
:102CD00028900048E0146048146058147002A18ADB
:102CE00024036002A19AB1B54002804BC3B1A398FE
:102CF0005020B1D85002E4F090004AE004F0700691
:102D0000900049E004F0D3B1A3985002A19A713B1E
:102D1000A19A9000487401F09000477404F0807A02
:102D2000900047E06005AE27AF282290004874026B
:102D3000F08067B1B54005E014F0805EB1CCFFD300
:102D400090004AE09FE5F0B1AB984030B1C5FFAECE
:102D5000F0B1D85002E4F090004AE024FFF0900077
:102D600049E034FFB1CBFFAEF0C390004AE09FEEE4
:102D7000B1AB985025EEF0A3EFF0801E90004874A0
:102D800003F09000477428F08010900047E0600541
:102D90007EFF7FFF22E4900048F0900049E0FEA310
:102DA000E0FF2290004AE09528E5276480F8900033
:102DB00049E064802290004BE0D36480948022AB91
:102DC0001CAA1DA91E900001020533F0AB1CAA1D10
:102DD000A91E900003020533AC27AD281204FDEFB5
:102DE0001490004BF0C36480948022121FDF900087
:102DF00012F0E490004DF090001EF01233837B003F
:102E00007A0079257F02F1998B1C8A1D891EE525A0
:102E10006033F1D6FF90001AD175B1C5D171B1D22E
:102E2000FFAEF0C3D17D5005EEF0A3EFF0123FC42A
:102E3000FFD17C4005EEF0A3EFF0751CFF751D0976
:102E4000751E4E80057F0B1220F4300204D20080E4
:102E500002C200C20F9000207406F0F1DCF166900F
:102E600000537401F0E4900055F09000547418F091
:102E700022FF90001CE5F0F0A3EFF022D3900019A0
:102E8000E09FEE6480F8900018E06480982212279A
:102E90009C92F7F14C72F79218B1BFFFAEF0900020
:102EA0001CE0FCA3123EF7EC6480985006AE04AF21
:102EB000058000B1BFFDC3EF9DE5F0123590500CC9
:102EC000301809D17D4005EEF0A3EFF012279C5099
:102ED00026200423900020E0600414F08055C3D124
:102EE0007D500EA3E004F07006900018E004F0801E
:102EF0003CD203F1558036F14C502A200427900033
:102F000020E0600414F0802BB1CCFFAEF0D17C4007
:102F10000EA3E024FFF0900018E034FFF08004C21C
:102F200003F155800820180B300408C204900020DB
:102F30007406F030180790001F7420F02290001FD4
:102F4000E0B4010714F0C21A1231F122E54BB402C9
:102F500002D322C32290001E7404F0900018EEF0F9
:102F6000A3EFF0D20422E4900048B1CBFF900049D7
:102F7000D175E4900047F090004BF022121F307F93
:102F800002F199E5266008B1D2FF900018C1759052
:102F90000018E4F0A374C8F022E4120484FE123F87
:102FA0005BB50707740112048480040EBE0FEFAFF7
:102FB00006EF75F00EA4244EF9740935F0FA7BFF84
:102FC0002220150B201608E54D7004B1BFD17122E7
:102FD00012013E02039B900005020533E490005E5F
:102FE000F0F55122E4FFFE7D7A7C4422C2AF0075E9
:102FF00096AA75965553977F2275F503753001751E
:1030000031F48023E5F520E726E531453070028074
:1030100026E533153370021532E533453270E5E5A8
:10302000311531700215307532017533F480D5E4F5
:10303000F5F5E5F530E11075F580000000121FD9B7
:103040007F05121FD6D322C3228F2B8B2C8A2D896A
:103050002EE52B25E054FEF5F4852FF675F50312C9
:103060002FFC500122E52B25E04401F5F4122FF945
:10307000500122AB2CAA2DA92EE5F612048475F579
:1030800004E5F530E5FBC3228B278A28892911D670
:10309000F52F7B007A00792A7F6211495002C32202
:1030A00090003FE075F003A4AB272529F9E528350A
:1030B000F0FA900001120457F4522A900002120410
:1030C00057422AAA28A92911D6FBAD2A7F6211E608
:1030D0005002C322D32290003FE075F003A4F58292
:1030E00085F0830204578D2BEF25E054FEF5F48B19
:1030F000F6122FF9500122852BF675F501122FFCDF
:1031000050012275F504E5F530E5FBC32212132DBD
:10311000752F097F62114950037F0522E52730E7AB
:10312000037F0122E52730E3037F0322E52730E018
:10313000037F042212132D752F0A7F621149500359
:103140007F0522E5277F0030E1027F0222AB077A6C
:10315000A090002DE07043C3EB64809480403BD38B
:10316000EB648094964007EB6480949F402C900021
:103170002612070B00000000319BA3EBF0A37401A3
:10318000F0EB30E40543DF80800353DF7F53DEF054
:10319000EB540F42DEDAFE43DF0222E490002AF015
:1031A000A3F02275C900B21D301D02D21E32538811
:1031B000EFD21C325388CF5389F0438901E4F58C58
:1031C000F58AF5CE75CB0B75CADB75CD5D75CC6612
:1031D000F5C975CF8075A8A2C21EC21D75C89122FF
:1031E000301B07C2AF0075FBAA2275FB5500D2AF9A
:1031F00022E4FFD21B31E03002010F300603430707
:1032000002300103430704900034EFF0900018E00F
:10321000FFA3E0900032CFF0A3EFF07B017A0079BA
:10322000327D03914B900035EFF0201A0E90005242
:10323000E0FF900035E0B507028076201A0FC390BA
:103240000051E094FE900050E09400401B7B007A17
:103250000079287D007C027F1D51B5E4FC7F1D5163
:10326000B5E4900050F0A3F0E4F528900050E0FEA3
:10327000A3E07802C333CE33CED8F97C002528FDF5
:10328000EC3EFC74322528F9E43400FA7B017F1906
:1032900051B50528E528C3940440D0900051E004BE
:1032A000F07006900050E004F0900035E09000527D
:1032B000F0C21B21E08F2CE52CB4190512043EF559
:1032C000FEEDF5FCECFFEFF5FD00852CFF000000A6
:1032D000000000E5FF20E0FBE52CB41105E5FE123F
:1032E0000484228B268A278928E4F52AF52BD21B11
:1032F00031E0E4F529AE2AE52B7802C333CE33CE94
:10330000D8F97164940440EDAB26AA27A9287D035F
:10331000914BAB26AA27A928900003120457B507A2
:1033200013052BE52B7002052AC394FEE52A648061
:10333000948040BED3E52B9400E52A6480948040BD
:1033400008E52B152B7002152AE4F529AE2AE52B8A
:103350007802C333CE33CED8F97164940440EDAE15
:103360002AAF2B227C002529FDEC3EFCAB267E00FB
:10337000E5282529F9EE3527FA7F1151B50529E50C
:1033800029C3227B017A00792E51E3900050EEF0A0
:10339000A3EFF07B017A00792E7D03914B900031F1
:1033A000E06F704E900030E0C330E201D3920190A4
:1033B0000030E0C330E101D39206900030E0C3302A
:1033C000E001D3920290002EE0FFA3E0900018CF1E
:1033D000F0A3EFF0900031E0900052F0900051E047
:1033E00004F07006900050E004F0B198400E910097
:1033F000800A912CD202D21A31F1B19BC21B21E07A
:1034000020020B912CC21A31F1751F06910F227503
:103410002664C21B31E07F1E7E001216B8917CB17B
:103420009850021526E52670ED0229E8122F7CC27D
:1034300002D206D220120FFB7F337E337D8BB1A6E2
:1034400060054003D38001C39201228B2C8A2D8911
:103450002E7FFFAB2C052EE52EAA2D7002052D1414
:10346000F912043E62077E08EF30E70725E06407A3
:10347000FF8004EF25E0FFDEEFDDD822D1E9501711
:10348000900059E0C36480948C5005E004F0800CF7
:10349000E4900059F0A17CE4900059F0E51FB40AD3
:1034A000004002A1809034ACF82828730234CA028C
:1034B00034D90234DE0234D40234FA0234FA02344B
:1034C000E0023537023537023537C283C281E490D6
:1034D000005AF022C283D28122D283C28122801577
:1034E000B1814F7F8060027F0090005AEFF0B1857C
:1034F0004F7002A17CD283D28122C28190005AE017
:10350000FF547FFEE51F7D00B404027D03C3EDB1CF
:1035100090500C0EEF548090005AF04EF0800EB197
:10352000814F7F8060027F0090005AEFF0B1814FA1
:10353000C36001D392832290005AE0547FF0E51FCC
:1035400064086005E51FB409047F0680027F0A90C5
:10355000005AE0FED3EFB1904004E4F51F22900042
:103560005AE0FF04F0EF75F00212041CAFF0EF60B8
:103570000BE51FB40903D28122D28322C283C28108
:103580002290005AE05480FF3395E0229526E525ED
:103590006480F8EE64809822A29322751F05810F43
:1035A0007F667E667D267C40AB16AA15A914A813FB
:1035B0000202E4200C06D192FFC20E2290004212B9
:1035C0000DE0D1DEFF900045E03EFE30E703E4FE73
:1035D000FF900040E0FCA3E0FDC39FFFEC9EFEC314
:1035E000EF9486EE648094815013ED247AFEEC34DF
:1035F000FE900045F0A3CED19A7E017F86900041D7
:10360000E0246AFD900040E034FFFCC3EF9DECB184
:10361000905002D20E228D2CA907E9600CE50A24F5
:10362000D1FBE50934FFFA800AC3742D950AFBE447
:103630009509FAEA30E703E4FAFBF105400280203D
:10364000D1F474309BFD74759AFCC3EF9DECB1907E
:10365000500AE52C60067E007F0180047E007F001A
:10366000EF4E6009EB25E0FBEA33FA8003E4FAFB56
:103670000BBB00010AE96006AE02AF038007C3E49A
:103680009BFFE49AFE900043E02FF0900042E03E62
:10369000F022900040E0FEA3E022F0E4900042F02F
:1036A000A3F0228E2D8F2E1222A61227EF700280F9
:1036B00028122DBFFBAAF0900042120DE0D1DE903F
:1036C0000045E03EC3EB952EFFEA952DFE900045A8
:1036D000F0A3EFF0EE30E704E4120C8380BD7D0C24
:1036E0001204FD900046E02F22900001E06002C32A
:1036F00022A20E22900042E0FEA3E0FF7CFF7DFFAD
:10370000120496C322900042E0FEA3E0FFD394008F
:10371000EE6480948022EF14600C14600F14701B10
:10372000C283D281800AD283C2818004D283D281B3
:103730007F147E001216B8C283C2812275260AF158
:1037400098E4900001F0120FFB122FE4121FCD122B
:103750002FD090000EEEF0A3EFF0120DE8D526E684
:1037600012271B301931120EC6702C3001217F0236
:10377000F1167FC87E001216B87F02F11675263248
:103780001526E52660097F0A7E001216B880F1D260
:103790001790000B7412F022900002747FF0A37453
:1037A000FEF0A37480F0A37402F0E490000AF0909D
:1037B000000612070B00000000228F278D28E54C21
:1037C00030E705F116E4F54CE54C7F0030E102AF3F
:1037D000278F1FE54C700BF51F754C0A900001E513
:1037E00028F02290F1297411F090F129E054117021
:1037F000F8222093037F0122E5B55408FF22E54B10
:103800006002D322E54AC36001D32290000DE0603C
:1038100002C322201702D32290000BE06002C322D1
:103820001237FE4002C217113A112DC322E54B6434
:10383000016002C322E4F54BD322E54A6009E54961
:103840006005E4F54AF54922E4FE74462EF8E630B8
:10385000E724547FFDEE700B7C053005027C02AF3F
:103860000480027F04EDC39F50010DE65480F6747E
:10387000462EF8E64DF60EBE02D022E54B7004E56A
:103880004A70037F0022AF4922E54B14FFD36480C6
:1038900094804001227F00229000017401120EC525
:1038A000600AE51F6003754C08E4F51F22900001D3
:1038B000E07011119811F6AB16AA15A914A81312ED
:1038C0002FD011ED22E51B6023900001E0701D1147
:1038D00098D214E50AAE0930E707FF7CFF7DF68039
:1038E00006AF0A7C007D0A12049611ED22900010AA
:1038F000EEF0A3EFF022E4FFFE7DC87C4222E54C0F
:103900007016EF4E7005754C808008EF25E025E0BD
:1039100014F54C900001EDF022E54D14600E14609A
:103920000F1460102403700F751F0322751F0222ED
:10393000751F0122751F042290000BE07006900095
:103940000DE06004D2188032300204C218802B12BD
:103950000EC6640E6004D2188020E54DB40304D274
:10396000188017900000E07003742BF0900000E0C6
:10397000D3940340028001D39218301802809AE455
:10398000F51F22E54CD39409403BE54C24F8C313C2
:1039900014FF301407E50A20E7020F0F201413D399
:1039A000900011E094E7900010E06480948340025E
:1039B0000F0FEF3395E0FE74032FF58274003EF590
:1039C00083E493FF227F002290000DE07003740DCA
:1039D000F022E54D64036004C218801A120EC6146A
:1039E000600E24F8600A24FD24FD5004240F7004A6
:1039F000C2188002D218201807E490000CF080133F
:103A000090000CE0FF700404F08008EFD394744041
:103A100002D322C322752A457529317528C8752716
:103A200000AF2AAE29AD28AC27C004C005C006C02F
:103A300007122FE451C1122FD0AB07AA06A905A87F
:103A400004D007D006D005D004120615515C9000B2
:103A50003AEEF0A3EFF0D2112212013E8F2A8E2906
:103A60008D288C2722AD07AC06EC120362E4FBFA2A
:103A7000796C784212013EE4FBFA794878431202ED
:103A800047515C7BA47A70797D783F5159E4FBFA09
:103A9000794078405159C004C005C006C007122FB4
:103AA000E451C112013EA804A905AA06AB07D0073C
:103AB000D006D005D004120247515C51D2809A7CC6
:103AC00040AB1AAA19A918A817225165900036020E
:103AD00006FFE4FBFA79C8784222E550B40A02D323
:103AE00022E550B40B02D322C32290003CE06002D6
:103AF00014F02290005BE0700204F02230150261A5
:103B0000963016026196E490005BF0E54D6002612C
:103B1000F1122DBFFFC390001DE09FE5F071F298F8
:103B2000506E90005CE0FF700404F08008EFC394D6
:103B300009500261F190005C7401F0122FD6FFAEC3
:103B4000F0D390001BE09FEE6480F890001AE064D0
:103B500080984007EEF0A3EFF0800E90001BE02469
:103B600032F090001AE03400F0122DBFFFAEF0D317
:103B700090001DE09FEE71F2984006EEF0A3EFF08A
:103B80002290001DE024FAF090001CE03400F022A6
:103B9000E490005CF022E490005CF051F330160CED
:103BA00090005BE0D3940440030226D890005BE0D1
:103BB000D3940A403CD390001DE094F471F59481B5
:103BC000400CA3E02406F090001CE034FFF0D390FA
:103BD000001BE0942290001AE06480948B400CA3B8
:103BE000E024E7F090001AE034FFF090005B7401ED
:103BF000F0226480F890001CE064802290005CE079
:103C00006008C394095003E004F090005BE0600892
:103C1000C3940B5003E004F022900047E0600214CC
:103C2000F022900054E0600214F022900053E06013
:103C30001724FE602214603C24027042900054E07D
:103C4000D3940040217F0222900055744BF09000E5
:103C5000537402F07F0122900055E014F0E0D394F9
:103C60000040037F01229000547418F090005374B8
:103C700003F0800A900054E07004900053F07F003D
:103C800022E55170078D5190005EEFF02290005EAA
:103C9000E0B407005061903C9DF8282873023CB2C4
:103CA000023CBB023CD7023CDD023CEC023CBB02C6
:103CB0003CF2E4F5517D0B7F01803A7F0291FA508E
:103CC000037F012290005EE0B401067D077F028041
:103CD000247D237F06801E7D237F0380187F06912D
:103CE000FA50037F01227D077F0480097D0B7F0549
:103CF0008003E4FDFF91817F0022AB07EB3395E069
:103D0000FEEF25E0FDEE33FCAF51EF3395E0FE1200
:103D100004FDEB14D36480F8ED6480984002D32254
:103D2000C322E5516002155122900057E07005044E
:103D3000F0754C0F22900057E024FE606D14700265
:103D4000A1CE14602124036002A1DFE54CD39406C8
:103D500040037F0122E54C6002A1DF900058F09003
:103D60000056F0A38076B1E2FF642D6004EFB4202A
:103D7000149000577403F0EFB42D05754C24802285
:103D8000754C14801DB1E2540FFF700890005674FA
:103D900037F08008EF25E025E014F54C90005774CB
:103DA00002F0900058E004F08035900056E0701565
:103DB000E54C7009754C0CA37403F08022E54C307F
:103DC000E11D7F0122900056E014F07F0122E54CB6
:103DD000700DB1E29000577003F080037404F07F1F
:103DE0000022900058E090002E9322900001E07095
:103DF00006900057E060037F0122D3900041E094D9
:103E000000D11494805007120EC654FE60037F0147
:103E1000227F0022900040E064802290001FE05446
:103E2000FE6003E014F090001EE0600714F0E07004
:103E300002C203900021E0600214F0900015E070CF
:103E400002A3E0600E900016E024FFF0900015E061
:103E500034FFF0900013E0600214F022120EC6B49A
:103E60000B02800A12279C400B122F4C4006E49054
:103E70000017F022900017E0FF541FFE7013EF2090
:103E8000E60F122F4C7D8050027D20EF4D900017E1
:103E9000F0900017E054E0F0C3EE64809486500781
:103EA000E020E6030E8002E4FE900017E04EF022D0
:103EB000E4FFEF90000893FE90004DE0FDEEB505A5
:103EC00002C3220FBF03EBD322E490004DF0FF02A8
:103ED000232690004DE0FF700590004CF0229000EA
:103EE0004CE004F0F147240FFFE43EFEE0D1F9740A
:103EF00080984002E4F022E0FDC39FEE6480F82247
:103F000090004CE0FFC39405500BEFC39403503373
:103F1000EF04F51F2290004DE0FFF1472405FFE478
:103F20003EFE90004CD1F77480985017ED24FBFFB3
:103F3000EC34FFFE7D031204A8EF20E004751F019E
:103F4000228000E4F51F227E007C007D061204968C
:103F5000EF2290003DE0FEA3E0FF22EE75F00EA4FC
:103F6000244EF582E43409F583E49322E50A9FEEBA
:103F70006480F8E50964809822900040EEF0A3EF99
:103F8000229000157401F0A374E0F0227F02122346
:103F900026122FC1D20822D390000FE09422229043
:103FA000003A7417F0A3746FF022F583E493FE7463
:103FB0000193FF2290000C120457FF22E4FFFE7DC4
:103FC000807C3F2290001CE0FEA3E02212043E9081
:103FD0000014F022E525F0A3E526F02290003AE057
:103FE000FAA3E022F090003C7408F02290003CF02C
:043FF00090003F22DC
:00000001FF
