:1000000002073C02040104020807030231ACC11FCD
:1000100041000000C114C1174100570041005800C1
:10002000C12341004E00001F050E080231A13236E7
:100030002030322032352D31302035320058524EAA
:100040005547000229B6020407E86480F8E933E85E
:100050003360110460F0ED33EC337009E8FCE9FD26
:10006000EAFEEBFF220460DED3EB9FEA9EE99DE807
:10007000C2E78CF0C2F795F0400CE8CCF8E9CDF976
:10008000EACEFAEBCFFB1203D285D0F0580470030E
:1000900020D5B3E80470075002B2D502041192D5FE
:1000A000EC0460F7E4CCC0E0C398F8603B941860BF
:1000B00008400DD0E0FB0203E9E4FBFAC9FC80280C
:1000C000E830E406E4C9FBE4CAFCE830E305E4C92F
:1000D000CACBFCE854076010F8C3E913F9EA13FA35
:1000E000EB13FBEC13FCD8F130F52FC3E49CFCEFD1
:1000F0009BFFEE9AFEED99FDD0E0FBEF4E4D4C706C
:100100001222DB0302040EEC2CFCEF33FFEE33FE75
:10011000ED33FDED30E7EB0203E9EF2BFFEE3AFEA6
:10012000ED39FDD0E0FB50130BBB0003020411EDD1
:1001300013FDEE13FEEF13FFEC13FC0203E9EC4D8D
:100140006011E8497017ED33EC3304600DE4FCFFF7
:10015000FEFD22E933E8330470F80204071203D2EB
:1001600058046009E4CC2481500628500902041187
:1001700028400302040EC0E0EB4A7044B98006D068
:10018000E0FB0203FDEF4E701CBD8008EBFFEAFEB2
:10019000E9FD80EBE98DF0A4FEE5F0020227E9CD50
:1001A000F9EAFEEBFFEF89F0A4FCE5F0CE89F0A4BC
:1001B0002EFFE435F0CD89F0A42DFEE435F0806704
:1001C000EF4E7005BD80D780C3EF8BF0A4ACF0EE8E
:1001D0008BF0A42CFCE435F0F8EF8AF0A42CE5F0C9
:1001E00038FCE433CB8DF0A42CFCE5F03BF8EE8A30
:1001F000F0A42CFCE5F038F8E433CF89F0A42CFC13
:10020000E5F038CF3400CE89F0A42FFFE5F03EFEB4
:10021000E433C98DF0A42EFEE5F039CD8AF0A42F89
:10022000FFE5F03EFEE43DFD33D0E0FB50070BBBA5
:10023000000F020411EC2CFCEF33FFEE33FEED3324
:10024000FD0203E9020411EC5D046005E859047045
:10025000030204071203D2580460F6EC4860F2EC83
:100260007004FDFEFF22C860DB2481C85009C398DA
:100270006002500602040E9850CAF582E9294B4AE2
:100280007005AB820203FD75F0007C1A7880C3EF25
:100290009BEE9AED99400DC3EF9BFFEE9AFEED9910
:1002A000FDE842F0DC23ACF0D0E0FFD0E0FED0E08F
:1002B000FDAB8220E7101BEB60BAEC2CFCEF33FFA8
:1002C000EE33FEED33FD0203E9E803F830E705C045
:1002D000F075F000EF2FFFEE33FEED33FD40B83048
:1002E000E7C280AA74F8CC6480CCC86480C8F58268
:1002F00004604FC3EB9FF5F0EA9E42F0E99D42F0A7
:10030000E89C45F0603C501DE5825FFFE582D31319
:10031000CB5BCBF42B5582FB50280ABA002409B9D9
:10032000002008801DE5825BFBE582D313CF5FCF01
:10033000F4C3132F5582FF50090EBE00050DBD00FA
:10034000010CC3EB9FF5F0EA9E42F0E99D42F0E814
:100350009C45F06007CC4820E701B3EC2275F02003
:10036000800E75F010800575F0087D007E007F001E
:100370003392D530D5031206A7EC334010EF33FF8C
:10038000EE33FEED33FDEC33FCD5F0ED22E5F02449
:100390007EA2D513CC92E7CDCEFF22EDD2E7CD33AE
:1003A000EC3392D524814006E4FFFEFDFC22FCE400
:1003B000CFCECDCC24E0501174FF80EDC3CC13CC54
:1003C000CD13CDCE13CECF13CF0470F030D5DE02D7
:1003D00006A7E9D2E7C933E833F892D5EDD2E7CDE5
:1003E00033EC33FC5002B2D522EC30E7100FBF00E3
:1003F0000C0EBE00080DBD00040BEB6014A2D5EB83
:1004000013FCED92E7FD2274FFFCFDFEFF22E48069
:10041000F8A2D574FF13FC7D80E480EFC2D530F7DD
:1004200007B2D563F0FF05F030E70CB2D5F40484D1
:1004300063F0FF05F080018430D502F40422BB0193
:100440000689828A83E0225002E722BBFE02E32271
:1004500089828A83E49322BB010CE58229F582E537
:10046000833AF583E0225006E92582F8E622BBFEB6
:1004700006E92582F8E222E58229F582E5833AF54C
:1004800083E49322BB010689828A83F0225002F71B
:1004900022BBFE01F322EF8DF0A4A8F0CF8CF0A4D4
:1004A00028CE8DF0A42EFE22BC000BBE0029EF8DBD
:1004B000F084FFADF022E4CCF875F008EF2FFFEEEA
:1004C00033FEEC33FCEE9DEC984005FCEE9DFE0FF8
:1004D000D5F0E9E4CEFD22EDF8F5F0EE8420D21C53
:1004E000FEADF075F008EF2FFFED33FD400798509B
:1004F00006D5F0F222C398FD0FD5F0EA22C2D5EC62
:1005000030E709B2D5E4C39DFDE49CFCEE30E7156D
:10051000B2D5E4C39FFFE49EFE1204A8C3E49DFD90
:10052000E49CFC80031204A830D507C3E49FFFE4D9
:100530009EFE22BB0110E58229F582E5833AF58310
:10054000E0F5F0A3E0225009E92582F886F008E6FC
:1005500022BBFE0AE92582F8E2F5F008E222E583F3
:100560002AF583E993F5F0A3E99322BB010A898276
:100570008A83F0E5F0A3F0225006F709A7F01922CC
:10058000BBFE06F3E5F009F31922E88FF0A4CC8B4B
:10059000F0A42CFCE98EF0A42CFC8AF0EDA42CFC39
:1005A000EA8EF0A4CDA8F08BF0A42DCC3825F0FD78
:1005B000E98FF0A42CCD35F0FCEB8EF0A4FEA9F071
:1005C000EB8FF0A4CFC5F02ECD39FEE43CFCEAA4BD
:1005D0002DCE35F0FDE43CFC2275F008758200EF6D
:1005E0002FFFEE33FECD33CDCC33CCC58233C58265
:1005F0009BED9AEC99E58298400CF582EE9BFEED1E
:100600009AFDEC99FC0FD5F0D6E4CEFBE4CDFAE4EC
:10061000CCF9A88222B800C1B90059BA002DEC8BE0
:10062000F084CFCECDFCE5F0CBF97818EF2FFFEEBC
:1006300033FEED33FDEC33FCEB33FB10D703994075
:1006400004EB99FB0FD8E5E4F9FA227818EF2FFFB5
:10065000EE33FEED33FDEC33FCC933C910D7059BF7
:10066000E99A4007EC9BFCE99AF90FD8E0E4C9FA53
:10067000E4CCFB2275F010EF2FFFEE33FEED33FDDF
:10068000CC33CCC833C810D7079BEC9AE899400A02
:10069000ED9BFDEC9AFCE899F80FD5F0DAE4CDFB80
:1006A000E4CCFAE4C8F922C3E49FFFE49EFEE49D93
:1006B000FDE49CFC22EB9FF5F0EA9E42F0E99D42AE
:1006C000F0EC6480C864809845F022EB9FF5F0EA76
:1006D0009E42F0E99D42F0E89C45F022E8600FEC74
:1006E000C313FCED13FDEE13FEEF13FFD8F122E46C
:1006F00093FC740193FD740293FE740393FF22EC48
:10070000F0A3EDF0A3EEF0A3EFF022A8828583F032
:10071000D083D08212072212072212072212072248
:10072000E473E493A3C583C5F0C583C8C582C8F04C
:10073000A3C583C5F0C583C8C582C82278FFE4F687
:10074000D8FD9000007F007E04E4F0A3DFFCDEFA19
:10075000758151020791020A3EE493A3F8E493A342
:100760004003F68001F208DFF48029E493A3F854F3
:1007700007240CC8C333C4540F4420C8834004F476
:1007800056800146F6DFE4800B0102040810204089
:100790008090000EE47E019360BCA3FF543F30E5DF
:1007A00009541FFEE493A360010ECF54C025E060FE
:1007B000A840B8E493A3FAE493A3F8E493A3C8C5CC
:1007C00082C8CAC583CAF0A3C8C582C8CAC583CABD
:1007D000DFE9DEE780BEC2D5E830E70FB2D5E4C37B
:1007E0009BFBE49AFAE499F9E498F8EC30E717B245
:1007F000D512080C120615E4C39BFBE49AFAE4999F
:10080000F9E498F8800312061530D50DE4C39FFF74
:10081000E49EFEE49DFDE49CFC220012002B0010EF
:10082000DBD6000FCC1E000ECF6C000DE44B000D8C
:100830000965000C3D80000B7F7C000ACE50000A49
:10084000290700098EC30008FEB50008781F0007BD
:10085000FA52000784AE0007169D0006AF97000607
:100860004F1C0005F4B800059FFE0005508B0005E5
:1008700006020004C00D00047E5D000440A90004CF
:1008800006AC0003D02700039CE100036CA1000329
:100890003F37000314720002EC280002C62F00024A
:1008A000A2630002809F000260C3000242B1000206
:1008B000264C00020B7B0001F2230001DA2E00011E
:1008C000C3870001AE19000199D2000186A0000182
:1008D00074720001633A000152EA000143720001A0
:1008E00034C8000126DF000119AC00010D2500010C
:1008F0000141F5F5EB3AE107D755CE1DC558BD00CE
:10090000B50EAD7FA64C9F7098E792AC8CBB87115B
:1009100081AA7C82779772E46E676A1E6606621C03
:100920005E5F5ACB575F541950F84DF84B1A485A2E
:1009300045B8433340C83E773C3E3A1D3812361D19
:10094000343B326D00000000000000000000000099
:100950000000000000010001000000000100000094
:10096000000000000000000000000207D0007D0C25
:10097000800001010200000003007D00000B220145
:100980000001030204000400FA00000B54010001FE
:10099000030105030501F400000BB8010101040186
:1009A00006040603E800000C1C010101050107050F
:1009B0000707D000000C8001010106010306080BA7
:1009C000B800000D160001000800000709057800B6
:1009D000000B2200010009020C0D0A003200000B7E
:1009E000220000010A0203000B0BB800960D16004E
:1009F00001010A0200000C09C400140BB800010038
:100A00000C020D090D09C400000BB80001000D0215
:100A1000090C0E02BC00000B220000000E000000BA
:100A200005060401FF0B02030003FF00041F00067C
:100A3000D00008030105000201FFFF050002122F8C
:100A4000EA121F8B1231B2121BF212287E121CD432
:100A5000122E18D219123736C220F1FBD1CF122034
:100A60003712220F12235E12135C122BF5301EEA8E
:100A7000201F1512347A123C1812210551A6121E9D
:100A800014123C50D21F801A123836122A02123E1B
:100A9000FA123E4C123E8D123D59123C59123ABF89
:100AA000C21FC21E80B4200C0AC20B123692918360
:100AB000C20E22300F0281671227F0400281677553
:100AC0002902752AEE300B08752901752AF4800673
:100AD000752902752AEED3E50A942D917B500261A7
:100AE000CFD3E50A9434917B4002D20BE50A24D39C
:100AF000F528E50934FFF5279000447418D1C5FFA7
:100B000064086004EFB40B1AD390003EE094229185
:100B100074948B400DAE27AF287C007D14F1E5F076
:100B200061C2D3E5289402E5276480948050026175
:100B3000C212043EFF64086004EFB40B09123F7A4E
:100B40007C037DE88007123F7A7C057D141204FD4A
:100B50008E258F26E52530E705E4F525F5260526C3
:100B6000E526700205259168985004F1B58027E5C7
:100B70002854FC45276014AE25AF26E5282402FD45
:100B8000E43527FC1204968E258F26AC27AD28AEBF
:100B900025AF26F1E5F0900041E0247AFF90004077
:100BA000E034FEFED3900046E09FEE6480F89000B3
:100BB00045E06480984005EEF0A3EFF090004474A7
:100BC0003CF09168987D0050027D017F018164C3F3
:100BD000E50A942D917B40028167C3742D950AF537
:100BE00028E49509F527D3E5289404E52764809443
:100BF000804002801BE52A2438FFE52934FFFED31C
:100C000090003EE09FEE9171984005E4F52B800343
:100C1000752B01900044E0600414F0803AE52B60ED
:100C200004F1B58020E52854FE4527600FC39000ED
:100C300046E09528F0900045E09527F0900045E0CB
:100C400030E7029182300B0FD390003EE094EE919A
:100C50007494824002C20B900045E030E70291821A
:100C6000AD2BE4FF12361522C390003EE0952AE535
:100C7000296480F890003DE0648022E50964809456
:100C80008022E4900045F0A3F022900001E014B42B
:100C90000B004002A1DC900CA475F003A4C58325D1
:100CA000F0C58373020CC5020CD5020D1F020D2581
:100CB000020D3C020D42020D5F020DAB020DC0029F
:100CC0000D66020D74E54C6002A1DC754C0F9000BE
:100CD000017402F0221239718F1FE54C6002A1DC11
:100CE000900010E0FEA3E0FFD394E7EE64809483CD
:100CF0004022F1F4D3ED9404EC64809480400BE046
:100D0000240AF0900010E03400F0B1DD7D0A1204F6
:100D1000FD1238DBB1DD7D641204FD7D03803D7D75
:100D2000047F02803EB1DD7D641204FD900010EC72
:100D3000F0FEA3EDF0FFF1F47D0580207D067F0439
:100D4000802130140A754C0A900001740AF022B117
:100D5000DD7D0A1204FDAE04AF057D070238EC7D8F
:100D6000087F010237B4E54C7072900001740BF0FB
:100D7000754C1F22E54CC394195027E54C54F8607C
:100D800021C3E50A942D917B5005751F018016C380
:100D9000E50A9437917B5005751F048008751F0282
:100DA0008003E4F51FE54C7033800EE54C702DD1C7
:100DB000C6700690000B7412F09000017409F022C6
:100DC000C214E4900010F0A3F090000BE060030266
:100DD0003907123877EF7004900001F0229000106C
:100DE000E0FEA3E0FF7C0022D1C6FFC37001D392D6
:100DF0001AEF64086005D1C6B40B0990003DB1E05C
:100E00007D0A800790003DB1E07D0F1204FDC374A0
:100E1000749FF528740E9EF527C3E52894E4E52712
:100E20006480948C500675270C7528E4E54D146099
:100E30001C14603E14605F2403706EC390000FE0CA
:100E40009528E527D1BB985060754D0122301A10C6
:100E5000E52824FAFFE43527D1B3984003E4F54DA3
:100E6000E5282438FFE52734FFFEC3D1B598503973
:100E70008034301A10E5282432FFE43527D1B398A6
:100E80004003754D01C390000FE09486D1BE948B52
:100E90005017754D0322301A10D390000FE0948044
:100EA000D1BE948C4003754D022212276AEF243282
:100EB000FFE43EFED390000FE09FEE6480F89000C8
:100EC0000EE0648022F0AB1CAA1DA91E02043ED1D4
:100ED000C6B4020C90001AE0F525A3E0F5268008C0
:100EE000122FCCF52685F02590000EE0FEA3E0FF42
:100EF000D394BEEE6480948A4010D3EF12358A40BA
:100F0000028001D39215C2168004C215D216B1E830
:100F1000E51FD39406502490004DE06003023F2863
:100F2000900001E06002818A90000BE07007D1C65A
:100F3000D394014003023926E4F51F22123877EFDB
:100F400024FE6018146018146018146025146034AE
:100F500024057060D1C6705C7F0A802502389B0230
:100F600038B3D1C6704E1227E0D1BE948B400C022C
:100F70003C46D1C6703E12359E5004751F07227F35
:100F80000E022327D1C6702CA20192187F337E3324
:100F90007D8B1235A460064004D2018007D3300156
:100FA00001C39201A218300101B350081239B6C230
:100FB0001A1231EF221236FC400280151236EBEF86
:100FC00094C0EE648094837E0050047F0180027F91
:100FD00000EF4E700F900042B1E07D0C1204FDF165
:100FE000E812369122120496900046E02FF090000D
:100FF00045E03E227C007D0A0204FDE508B40303BF
:10100000E4F508E508146038147002018E147002CB
:1010100001C52403600201C2D21A11E4E4F52AAF2B
:101020002AEF3395E0FE74272FF58274003EF58396
:10103000E493FD11D9EDF0052AE52AB404E1807DA1
:10104000E4F52A11D2E0FFC364809480400FD3EF0F
:1010500064809496400EEF6480949F5007052AE5C3
:101060002AB404DFC3E52A64809484501C11D2E0C2
:10107000F529640E6005E529B40804C21A11E4AF2D
:101080002912314B750802803C7508038037752E94
:1010900000752F00753029712D122B4EEF4E6025F3
:1010A000AD29AF28AE2711F9E4F52A11D2E0B52910
:1010B0000511D974FEF0052AE52AB404EE7508017D
:1010C0008003E4F508302009E50864036003020F9B
:1010D000FB22AF2AEF3395E0FE74222FF5827400D5
:1010E0003EF5832253DE7F007F00201A027FA0900E
:1010F000F692EFF00043DE80228E2B8F2C8D2D9008
:10110000F692E030E708E4FFFEFD7C408008AF1A6D
:10111000AE19AD18AC17512CAC2BAD2CEC120362F0
:10112000C004C005C006C007E4FBFA79807845AF6B
:1011300035AE34AD33AC32120247D003D002D00109
:10114000D00012013E8F398E388D378C36E52D2434
:10115000FB700221D624FD606624FA602A24EF6029
:1011600002412BAC2BAD2CEC120362A804A905AAFA
:1011700006AB077F9A7E997D997C451202478F1AAC
:101180008E198D188C172275312D7530A6752F3359
:10119000752E3E51358F168E158D148C133001121D
:1011A000E4FBFAF978401202478F128E118D108CF1
:1011B0000F2285161285151185141085130F2275BF
:1011C0003197753071752FCB752E3D51358F0E8E41
:1011D0000D8D0C8C0B22AB39AA38A937A836AF1A63
:1011E000AE19AD18AC17120049C004C005C006C046
:1011F00007E4FFFE7DEB7C43AB39AA38A937A8365C
:1012000012013ED003D002D001D000120247512C6F
:10121000E4FBFA797A784412013E512C12039B7B4D
:10122000007A00791B51488E098F0A228F358E343F
:101230008D338C3222AB31AA30A92FA82EAF39AE14
:1012400038AD37AC360202478B3A8A3B893C8F4037
:101250008E3F8D3E8C3D7F2B7E007D127C00711A6F
:10126000D31206CB400771237EFF7FED22E47F6D12
:101270007E327118C31206CB50067123FE7F4B22BB
:10128000AB3AAA3BA93C7401120484E47FF57EF5D5
:101290007118D31206CB402EE4F541E54125E02537
:1012A000E0241AF582E43408F5831206EF711AC3BC
:1012B0001206CB400AE54124EDFFE434FFFE22058F
:1012C00041E541B436D5E4F541E54125E024F2F5A8
:1012D00082E43408123FB7E48F458E44F543F5426B
:1012E000E545F545E544F544E4F543F542AF40AE48
:1012F0003FAD3EAC3DAB45AA44A943A842D312063C
:10130000CB5009E5412423FFE433FE220541E541AA
:10131000B42EB67123FEFF22FDFCAB40AA3FA93ECE
:10132000A83D22AB3AAA3BA93CE40204847B007AA4
:1013300000792722712D752F057F621230475002E8
:10134000C3223018055327FB80034327047B05ADD8
:10135000277F621230E45002C322D322900040E083
:10136000FAA3E0FBD39400EA64809480401712351E
:10137000B18E258F261227D8FFC312358A500A8EC8
:10138000258F2680048A258B26E550D394024010B1
:10139000E5264525700AE550B40D02D29475500239
:1013A000E550B40F004002C1AB9013B0F828287389
:1013B00002141E0213FA0213DD02143202144E024A
:1013C00014760214AA0214CC0214E60215130215B4
:1013D0006702163802165D02166E021692900036EB
:1013E00012070B00000000123FACD211C21871347A
:1013F00090003C740CF07550012290003CE0600DB0
:10140000E4FFFE7D20F14B60044002C1ABC2191223
:101410001AFDF1F5C2B0D1ACC294E4F55022E41249
:101420003FE9F0D3E5269400F1EE5002C1AB7550D0
:10143000032290003DE4F0A37423F0FF7E00123AF3
:10144000AF123A0390003F740FF075500422D1ACF4
:10145000301102C1AB90003FE014F06002C1ABD28A
:10146000B07F01FED1B0D219121AFDE490003F12F4
:101470003FE17550052290003CE07002806E9000C4
:101480003FE0B40818D21871344002C1AB90003C60
:101490007404F090003F7432F0755006227BFF7A9E
:1014A0000A79201230865065805C90003CE0700420
:1014B0007F05C1A990003FE0B4410FD29475500759
:1014C0007432F090003C7404F022801890003CE0EC
:1014D00070047F06C1A990003FE0B43C0775500836
:1014E000E4023FE1E15890003CE070047F04C1A9B0
:1014F00090003FE0B40204755009227BFF7A0A791C
:1015000038123086500790003FE004F0227F017EC1
:1015100000C1B0301102C1AB123FD9FB4A70057552
:10152000500B8040AE25AF267C007D021204FDEFFB
:10153000240AF526E43EF525D3E52694FAF1EE409B
:10154000067525007526FAC3EB9526EA9525500504
:10155000121FE5800FC390003BE09526F090003A03
:10156000E09525F0D21122301102C1AB123F7AC3AF
:10157000E5269FFDE5259EFCD3ED9458EC64809410
:10158000824002D222202202C11AEF4E701EC3E511
:1015900026942CE5256480948190003D5005123FEF
:1015A000D180647401F0A3742CF0805B3005089046
:1015B000003EE024328018120EC624F7602B24FC73
:1015C0006017146024240C703090003EE02402F078
:1015D00090003DE03400F0802E90003EE024E8F0E2
:1015E00090003DE03403F0801E90003EE02490F037
:1015F00090003DE03401F0800E90003EE004F07079
:101600000690003DE004F0C390003EE09526E525FD
:10161000120C7198400AC222800390003D123FD103
:10162000D211123F7A123AAF90003DE06525700466
:10163000A3E065267075806BE526B4FF0EE525B442
:10164000FF0975500C90003F7464F090003DE06518
:10165000257004A3E06526605275500A22123A03F1
:10166000C2187134500475500D227F04803BF1453F
:1016700060054003D38001C34002C294E526F470A4
:1016800003E525F46025D29490003F7464F0755012
:101690000E22D2187134500F7F057E00D1B0121F78
:1016A000E5D21175500B227F04F1CD227F017E001F
:1016B0008E298F2AE4F52FE52A45297002E1440599
:1016C0002FAE29AF2A122B3FE47BA07A0FF9F81234
:1016D000058A8F2E8E2D8D2C8C2BC007AF2FAB073C
:1016E000E4FAF9F8D0071206158F2E8E2D8D2C8C6A
:1016F0002BE47FFF7EFFFDFCAB2EAA2DA92CA82B8F
:10170000D31206CB50B9C374FF952EF52E74FF95F6
:101710002DF52DE4952CF52CE4952BF52BAF2EAE65
:101720002DAD2CAC2B78081206DC8F8CE52EFF8FAC
:101730008AC21C438810E58820E503301CF85388D2
:10174000CFD52FD9227F9A7E997D497C40AB0EAAB6
:101750000DA90CA80B0202E412310BEF602524FE48
:10176000604B14605A14604514605D2404705D90F1
:10177000003CE020E356123FC9F14D6002504D7F1E
:101780000780477FCD7ECC7D2CF14B4006F1456034
:1017900010400E90003F7432F020110B123A03807B
:1017A0000690003FE004F07F017E00C1B0E550B438
:1017B00006047F058014E490003FF07F06800BE470
:1017C00090003FF07F0980027F04F1CD228F2790A7
:1017D000003FE06009D1AC90003FE014F022C294D9
:1017E000AF271220F3E490003CF075500122E5256C
:1017F00064809480227F027E00C1B01218047B00B6
:101800007D047F038F2C12043EFF146013146025A7
:101810001460391460362404705651E8F1B1802701
:1018200051E8F5827401F531858232E582F4F58262
:10183000753300801251E8F4F582753100858232EB
:10184000EDF5827401F5338582348024EDF1B185A4
:101850008234EDF5827401F52D85822EEFB40407F4
:10186000EDFF7401FE8005EDF4FF7E008E2F8F30BA
:101870009000011204577007EDFF7401FE8005ED22
:10188000F4FF7E008E358F369000021204577007E9
:10189000EDFF7401FE8005EDF4FF7E00E52C147071
:1018A00002212D14700221A714700241212403602B
:1018B0000241A5E52DAB9A30E006E52E4BFD8004F4
:1018C000E52E5BFD8D9AE52F30E00790F00951BBC6
:1018D000800590F00951B490F009EDF0E53130E069
:1018E0000451CA800590F00A51AD90F00AEDF0E580
:1018F0003330E00451C2800590F00B51A690F00BFC
:10190000EDF0EE30E00451D9800890F00CE0FBEFF0
:101910005BFD90F00CEDF0E53530E00451E0800522
:1019200090F00D51D2AF0590F00DEDF022E52DAB0A
:10193000A130E006E52E4BFD8004E52E5BFD8DA178
:10194000E52F30E00790F01951BB800590F0195158
:10195000B490F019EDF0E53130E00451CA80059003
:10196000F01A51AD90F01AEDF0E53330E00451C2B9
:10197000800590F01B51A690F01BEDF0EE30E004D6
:1019800051D9800890F01CE0FBEF5BFD90F01CED5E
:10199000F0E53530E00451E0800590F01D51D2AF04
:1019A0000590F01DEDF022E52DABA230E006E52E0E
:1019B0004BFD8004E52E5BFD8DA2E52F30E0079006
:1019C000F02951BB800590F02951B490F029EDF039
:1019D000E53130E00451CA800590F02A51AD90F015
:1019E0002AEDF0E53330E00451C2800590F02B5130
:1019F000A690F02BEDF0EE30E00451D9800890F085
:101A00002CE0FBEF5BFD90F02CEDF0E53530E004D1
:101A100051E0800590F02D51D2AF0590F02DEDF002
:101A200022E52DABA330E006E52E4BFD8004E52E2C
:101A30005BFD8DA3E52F30E00790F03951BB8005A9
:101A400090F03951B490F039EDF0E53130E00451C7
:101A5000CA800590F03A51AD90F03AEDF0E53330A0
:101A6000E00451C2800590F03B51A690F03BEDF0B0
:101A7000EE30E008A3E0FDEF4DFF800890F03CE081
:101A8000FDEF5DFF90F03CEFF0E53530E009A3E0BD
:101A9000FDE5364DFF800990F03DE0FDE5365DFF48
:101AA00090F03DEFF022E0FBE5345BFD22E0FBE54A
:101AB000325BFD22E0FBE5305BFD22E0FBE5304BD5
:101AC000FD22A3E0FBE5344BFD22A3E0FBE5324B16
:101AD000FD22E0FBE5365BFD22A3E0FBEF4BFD22A0
:101AE000A3E0FBE5364BFD22EDF4F582758300851E
:101AF000832D85822E85832F858230ED227F0330D2
:101B000019027F018F29752A01752B017B0030197D
:101B1000027B0C7D0591B87D2011047B00301902F9
:101B20007B0D7D0691B87D401104301906F1D87FF8
:101B300005E1D575F580000075F28022E4F526F503
:101B400027F528FB7A0079267D047F021217FB7B9C
:101B5000007D20E4FF11047B017D05E4FF718771A6
:101B60008075DF4075DE60E4F5E9F5D1F5D375D514
:101B70000F75D4FF90F69274A0F0F16943DE8022D5
:101B80007D027F0271870FEB64026065EB64036086
:101B900060EB6419605BEBD3941C5055EF14601537
:101BA00014602314603124037047EDD39405504131
:101BB000ED2400802BEDD394075036EDC394034001
:101BC00030ED2410801AEDD394065025EDC3940116
:101BD000401FED24208009EDD394065014ED2430ED
:101BE000F52DE434F0F52CEB541F852D82852C83E4
:101BF000F022713C9120752603E4F527752801C277
:101C000083C281FB7D03FF71877D0171877A007933
:101C1000267D08F136E4FF1104E4F191F0F51F226E
:101C2000F199C280C2B1F12F7D01E4FFF1367F034B
:101C3000110490F120E4F0A37411F090F1237401E9
:101C4000F090F125F090F12A74FFF090F12EF090D1
:101C5000F122E4F090F1277411F0A3F090F160E428
:101C6000F090F165F090F1647411F090F131742E00
:101C7000F090F13074DFF090F1397417F090F13892
:101C8000746FF090F141E4F090F149F090F140F080
:101C900090F148F090003612070B00000000F1E5CB
:101CA000C213C21190F126741DF01237DD7B12F1C0
:101CB000637B16E41DFF61877F0271877B007A00DA
:101CC000792922F18B71F291D4120FFBC2191237CC
:101CD00036C22022F199C2B0C2A6C2A5C294F12F89
:101CE0007D107F0111047B007D017F031104C2B0D0
:101CF0001217F5C294C21951FDE4900040F0A3F010
:101D000090003DF0A3F0123FE9F0F550C22222E42A
:101D1000F5DE90F692F0F169E4FB7180752603E43C
:101D2000F527F5287A0079267D041F1217FBC219C2
:101D30007D027F03B13AC2197F02EF14603614604E
:101D40005F147002A1CC24036002A1EFEDD39405CF
:101D50004002A1EF30190EA8057401088002C333B8
:101D6000D8FC428022A8057401088002C333D8FC45
:101D7000F4528022EDD394075075EDC39403406F65
:101D800030190EA8057401088002C333D8FC4290B4
:101D900022A8057401088002C333D8FCF4529022B3
:101DA000EDD394065049EDC39401404330190EA879
:101DB000057401088002C333D8FC42A022A8057430
:101DC00001088002C333D8FCF452A022EDD394065C
:101DD000501D30190EA8057401088002C333D8FCC9
:101DE00042B02212299B8002C333D8FCF452B022A5
:101DF000202302D322713C120FFB7F9A7E997D39FA
:101E0000F1CA1202E45004C22371F6B10FE4F54E98
:101E1000F54FC322123E22EF60031220DAD3E54FC2
:101E20009400E54E94004009E54F154F7002154EA1
:101E300022D1CF75250C43870443870200000000A0
:101E400000001237ECEF60221231B21229A3F1A385
:101E50001216AC122037301E0AC21EB218301803F8
:101E60001238361237F850E881C3C21890005FE08C
:101E7000600414F0803A200235D200D202F1DE1262
:101E800031B271F6751F08E51FB4080F301EF8B2A5
:101E90001830180312347AC21E80ECC218C21A120B
:101EA00031EFE4F5C853A8DFF13DD1F18002D2183B
:101EB000E52560041525800EB1F0400575250C80E0
:101EC00005301802F18BE54F454E7002C13622E411
:101ED000F5C853A8DFF148B10FF13D91EED1F1E51E
:101EE000BD20E70C75BC4275BD0F43BD3043BD80BE
:101EF0002290000EE0FCA3E0FDEC1203627B9A7AD4
:101F000099793978401202E46002502230061F7538
:101F10002601E4F527752801D1DFD223120EC6F180
:101F20002FB401047D0880027D02E4FF1104227BAE
:101F3000007A0079262211047B007D0222C283C22E
:101F400081E4F51FF191F022E4FBF163E41DFF71E0
:101F50008790F121E4F090F126F090F125F090F1D6
:101F600023F0227D017F0361877F0490002274FEAD
:101F7000F0A3DFFCE4F50890002612070B00000038
:101F800000123199A3F0A3F0D22022E4F5BDF5BCF4
:101F90002290005AF090005922752603752701758A
:101FA0002801227D087F0112280090005D74AAF0AC
:101FB00022F4F582758300858331858232858333EF
:101FC000221221DD7F337E337D8B7C40AB12AA1140
:101FD000A910A80F228FF722E4F5F5F5F222900060
:101FE000147403F022E490003AF0A3F022EF14609E
:101FF0000E14600F1460102403700FED42AC22ED3C
:1020000042AD22ED42AE22ED42AF22EF1460111438
:1020100060151460192403701CE5AC5D6017D322B1
:10202000E5AD5D6010D322E5AE5D6009D322E5AF7A
:102030005D6002D322C3227D087F01110B403A90DC
:10204000005DE0FF25E0F0309303E004F090005DD8
:10205000E0FCF46003EC702111DAE4F5B5BCFF0399
:10206000C38001D392217B01BCFF027B027D037FF1
:10207000011228227D08121FED302108E54730E7C4
:10208000037547807F822005027F85AC07302125BC
:10209000E546B50420D3E54964809480400BAF4900
:1020A000EF3395E0FE11CC8009E4F549754B0175DD
:1020B0004801E4F546202113E547B4840EE4F547D2
:1020C000E5487004754A0122E4F54822E4F547F535
:1020D0004AF549F548EF04F54B2290005F749612DB
:1020E0000EC5B40107754E01754FE022754E00759F
:1020F0004F282290004DEF120EC5640160067F014B
:10210000712711DA22F1F04006E490004FF022909E
:10211000004FE0C394045004E004F02290004EE02D
:10212000540FF525121FC11202E4600640047F031C
:1021300011F37FCD7ECC7DBC12174B600B40097D27
:102140000231C7752601804912310BEF146011145A
:10215000600E24FD6022240270277F0911F3803174
:102160007D0431C7123FC912174D6007400575261F
:1021700003801EE4F52680197D0131C77526028093
:1021800010D31217EE4006E52514FF80027F008F62
:1021900025E526C454F0452590004EF0C3E525649E
:1021A00080948F4021E0C4540F14600E14600F140B
:1021B0006010240370107F07800A7F0880067F0468
:1021C00080027F0611F322AF2531CE8F2522C3EF87
:1021D0006480948F5004EF2DFF227F0F227FCD7EED
:1021E000CC7D4C1235A4601340117F9A7E997D39C5
:1021F000F1A71202E450047F0A11F37F667E667D28
:1022000046F1A71202E4600640047F0A11F322E5BA
:102210001B606AA20D92197525375182920DA20991
:10222000921975253275262851859209A20A9219AC
:102230007525417526285185920A300A067F0211BC
:10224000F3800990004DE0B40202F19F51A7F1CB59
:102250007003C20C22A20C921975252D518292187E
:10226000301803D20C22201818900045E07002A309
:10227000E0700E900042E030E707C20C227F0111AF
:10228000F322752628AF25EF3395E0FED3123F9455
:102290004002D322AF26EF3395E0FEC3123F9450A5
:1022A00002C322A21922F0AB1CAA1DA91E228F274D
:1022B00051A79000091204576002F12C120EC65467
:1022C000FE6015120F3CE527B401028009F1F040D1
:1022D0000712359E5002D1C7900017E030E71A541C
:1022E0007F51A6123FC16011120EAA98400751A754
:1022F000123FC180027F047127900017E030E50F84
:1023000054DF51A690000D120457FF60027127514F
:10231000A790000B120457600D5402FF90000A12A0
:102320000457FD123BD122AD07120EC66D602EF18F
:10233000CBFC121CBC122F9E8B2A8A2B892CE529E0
:10234000601B122E02852A1C852B1D852C1EEDD3A9
:1023500094024009EC6006F1D8FF12369A22123836
:10236000054002C1C61238698F25E5257005123770
:10237000F85007F109EF6002C1C6900014E0FFC3F6
:1023800094034006EFD394074003121FDE120EC6DB
:10239000F526900057E06002A13EE5261470028108
:1023A000DA14700281E724FA7002A10424FD70029D
:1023B000A12D240B6002A13E300260E525B4051B6F
:1023C000751F09C202F1E0120EBE948B4006900008
:1023D000137405F0C21A1231EFA13E123877BF0113
:1023E00024C390000FE09454120EBE948B5007E467
:1023F000900021F0A13E300702A13E90002174A080
:10240000F0D207A13E300707E4900021F0C2071286
:1024100037F84002A13E751F07A13E30001BE5259D
:10242000B40102800DF1BE400281D5900017E04456
:1024300040F0900014E0FFA109200812F1BE500EF8
:10244000F1E1120EBE948B4060123C4681D53008FB
:1024500008F1894004C208807CE52524FD601A1437
:10246000602B14604924FE60511460662407706577
:10247000900014E0FFD1E7805CD390000FE094BEA1
:10248000120EBE948A40047F09801A801C2009190C
:10249000D390000FE09416120EBE948D400B123FA5
:1024A000A1D2057F0B7127802C751F078027200282
:1024B00024751F08D202D2008011D3300601C392C6
:1024C000067F023006027F0112370DC21A1231EF69
:1024D0008003123D60120F3C8064123EE1405FF1C8
:1024E000BE505BF19F8057300812E490001EF0F15F
:1024F00089400C122F674007C2088003122EA712D2
:102500003AD1803A300D067F04D1E78031E5256469
:1025100002702B900012E0B40A047F048005900042
:1025200012E0FFD1E79000127404F08011200D0A30
:10253000900015E07002A3E07004D208D1C7120E1B
:10254000C6B5260A900057E07004AF2551AE123888
:1025500028300509120EC6640B6002C205900013F4
:10256000E07009900021E0600A300707F19074FAEA
:10257000F0C1B2900057E06012123D6CEF60067E31
:10258000017F2CC1837EFF7FFFC1831239C05007BA
:10259000F190741EF0C1B2120EC624FE7002C13E4C
:1025A00024F9607D24FE604E14603424FE607204C1
:1025B0006002C189D20F123C62EF24FE600E240239
:1025C000701174FF900040F0A3F0C1B2F19074C894
:1025D000F0C1B2C20FF1B2FF900040E5F0C1AE12FF
:1025E0002CD3F197F0D3948AEE64809482400280D9
:1025F00001D3920FC1B2F18951A75005900001801B
:1026000003900003120533FFAEF0F197122DCCB505
:102610000708EEB5F004D20FC1B2123FA1C20FC13C
:10262000B2123CC4EF6007F1B2FFAEF080047EFF4F
:102630007FFFF197F04EC37001D3920F8074C20FE9
:10264000122FE2FF900018E0FCA3E0FDD39FEE64A0
:1026500080F8EC6480989000404007EEF0A3EFF023
:102660008005ECF0A3EDF090001EE0604530030F14
:10267000F1D87802CEA2E713CE13D8F8FF80047EFB
:10268000007F1E900040EE8025F1B2FFAEF0D394A3
:1026900001EE648094804010900041E094C2F1D13A
:1026A00094815004D20F8002C20F900040EEF0A33C
:1026B000EFF0D3900041E094B8F1D1948B400774CF
:1026C0000BF0A374B8F022120EC6601A14601780C3
:1026D0000051A79000071204576002F1E830000291
:1026E000C200E4FF7127228F28AF28120EAA98405B
:1026F00004AF2861271528E528D3940250EB120E69
:10270000C67004751F072280BE121FC11202E4604A
:1027100018401620010FD2011239B6C21A1231EF39
:10272000D2177F01227F0311F37F002220003AEFAE
:10273000640270352002327F08120EAA98402620CB
:102740000923120EC6FFD394014005900012EFF04A
:10275000900014E0FFD394024007EF94085002F178
:10276000E87F0861277F07D1E722E4FE123F83B5A7
:10277000070FEE75F00EA42453F582E43409023FEE
:10278000B70EBE0FE7E4FEFF22E548C36001D32287
:10279000900040E4F0A322900040EEF0A3EF22E48A
:1027A00090004DF0FF61277C40AB1AAA19A918A828
:1027B0001722AB1CAA1DA91E900001020533E54B90
:1027C00064016002C322E4F54BD3229000080204A6
:1027D00057900040E0648022900040E0FEA3E02299
:1027E000D390000FE094222212043E900014F022B5
:1027F000E550B40A02D322E550B40B02D322C3221F
:10280000EF14600F14601114601324037013EDF4BF
:1028100052AC22EDF452AD22EDF452AE22EDF45260
:10282000AF22EBD394035055EF14601514602314BA
:10283000603124037047EDD394055041ED2480802E
:102840002BEDD394075036EDC394034030ED24882C
:10285000801AEDD394065025EDC39401401FED245A
:10286000908009EDD394065014ED2498F529E434B2
:10287000F0F528EB5403852982852883F0227525FD
:1028800001E4F526F527FB7D037F01121B877A0003
:1028900079257D081218047D087F01121FED7B0247
:1028A0007D03112243B9021220DA90005D74FFF01B
:1028B000E4F546F547F549F54AF54B22EF14602259
:1028C00014603D14605824037071EDD394054002E8
:1028D0008069ED248031508002C333D8FC55ACFCB4
:1028E000805DEDD394075006EDC394035002804BF6
:1028F000ED248831508002C333D8FC55ADFC803FB5
:10290000EDD394065006EDC394015002802DED24C2
:102910009031508002C333D8FC55AEFC8021EDD3FA
:10292000940640028015ED2498FBE434F0FA319BC4
:102930008002C333D8FC55AFFC8004E4FEFF22ECD8
:102940007003FEFF228B828A83E05403FF7E002205
:10295000FBE434F0FAA805740108227D037F01111D
:10296000BCEF64014E702FC221E546547FFFE4F5B1
:1029700046E5487004E54B6007E4F54BF5488018E0
:10298000EFC394055012C3E5496480948850020552
:1029900049754780800231A3021FA3AF05A80774C1
:1029A000010822D221E54730E703754780E546203C
:1029B000E70375468022C0E0C0F0C083C082C0D06B
:1029C00075D000C000C001C002C003C004C005C073
:1029D00006C007315B75B500D007D006D005D0041E
:1029E000D003D002D001D000D0D0D082D083D0F09C
:1029F000D0E032C2AF007596AA7596557597808063
:102A0000FE2290000AE0C394285050F1DA121FCC45
:102A1000F1C691CA90000AE004F071292528FFEE62
:102A20003527FEED3526FDEC352571227137AB28B3
:102A3000AA27A926A825C31206B550059000027141
:102A400046900004713AAB28AA27A926A825D312DC
:102A500006B5407A900004714680737129FFC00466
:102A6000C005C006C007900004E0FEA3E0FBAA0674
:102A7000EA3395E0F9F87137EF2BFBEE3AFAED39CE
:102A8000F9EC38F8D007D006D005D004C3EF9BFF8F
:102A9000EE9AFEED99FDEC9871227129FFC006C0F7
:102AA00007A3E024FEFFE434FFAB07FA3395E0F917
:102AB000F8D007D0061207D67123900006A3A3E032
:102AC000FFA3E090000ECFF0A3EFF012379290003A
:102AD0000DE060215409FFBF090C7F013001027F26
:102AE0000412370D800990000DE0B4010231F3901B
:102AF000000DE014F090000CE0FFB478057401F0D4
:102B00008009EF600690000CE004F0E54C600215CF
:102B10004C900000E0600214F090000BE0600214A2
:102B2000F022FC9000060206FF900006E0FCA3E005
:102B3000FDA3E0FEA3E022900002E0FEA3E0FFEE92
:102B40003395E0FDFC22E527F0A3E528F0228B2B4E
:102B50008A2C892DE5DF30E102804290002BE004D1
:102B6000F0700690002AE004F090002671E9AFDDD5
:102B7000EFFEADDCED713EEB2FFFEA3EFEE93DFDE1
:102B8000E83CFC9000261206FFC390002BE0940A5C
:102B900090002AE064809480500743DF02E4FEFF47
:102BA00022900026712CFFE47B0AFAF9F81207D66E
:102BB0009000261206FF900026A3A3E0FFA3E0AB3F
:102BC0002BAA2CA92DCF8FF012056B90002CE0AB17
:102BD0002EAA2FA930120484E490002DF0FE7F016C
:102BE00022E4FFFEFDFC900036E0F8A3E0F9A3E04C
:102BF000FAA3E0FB2220110281C930132D90F129A4
:102C0000E05411600281C990F164E030100554EF86
:102C1000F080034410F090F164E030120554FEF0AF
:102C200080034401F0C211C213221238E471E6128B
:102C300002E4600C400A90003612070B42C8000004
:102C400071E11202E4500A90003612070B000000F6
:102C50000090003AE0FEA3E0FFE4FCFD7B6F7A17F2
:102C6000F9F8C31206B55003123FAC71E11202E449
:102C700060054003D38001C3921290003AE07002D5
:102C8000A3E0C36001D392107F007E7C7D3B7C4635
:102C900071E612013E91CA123AB712024791CA1266
:102CA000039BAD07AC06123FD9FBEA90F149F0EB6C
:102CB00090F148F0ECFFEF90F141F0ED90F140F031
:102CC000D21390F129E04411F0228F288E278D260F
:102CD0008C25221227B2FFAEF08E27F528900048EF
:102CE000E0146048146058147002A1972403600235
:102CF000A1A7B1C24002804BC3B1B0985020B1D956
:102D00005002E4F090004AE004F07006900049E0C0
:102D100004F0D3B1B0985002A1A77146A1A79000CA
:102D2000487401F09000477404F0807B900047E005
:102D30006005AE27AF28229000487402F08068B189
:102D4000C24005E014F0805FB1CDFFD390004AE0AF
:102D50009FE5F0B1B89840311227B8FFAEF0B1D975
:102D60005002E4F090004AE024FFF0900049E03483
:102D7000FFB1CCFFAEF0C390004AE09FEEB1B8982F
:102D80005025EEF0A3EFF0801E9000487403F09001
:102D900000477428F08010900047E060057EFF7FB8
:102DA000FF22E4900048F0900049E0FEA3E0FF22FB
:102DB00090004AE09528E5276480F8900049E06497
:102DC000802290004BE0D36480948022F0AB1CAA58
:102DD0001DA91E900003020533AC27AD281204FD87
:102DE000EF1490004BF0C36480948022E49000487C
:102DF000B1CCFF900049D18EE4900047F090004B99
:102E0000F022F1D2B1EC9000537401F0E49000553F
:102E1000F09000547418F022121FDE900012F0E4BB
:102E200090004DF090001EF01233817B007A007903
:102E3000257F02F19E8B1C8A1D891EE5256033F1DA
:102E4000CCFF90001AD18E1227B8D18AB1D3FFAE31
:102E5000F0C3D1965005EEF0A3EFF0F1E2FFD1956B
:102E60004005EEF0A3EFF0751CFF751D09751E4EB1
:102E700080057F0B1220F3300204D2008002C200D2
:102E8000C20F9000207406F0C102FF90001CE5F014
:102E9000F0A3EFF022D3900019E09FEE6480F89049
:102EA0000018E06480982212278992F7F16772F780
:102EB00092181227B2FFAEF090001CE0FCA3123F64
:102EC0001FEC6480985006AE04AF0580001227B254
:102ED000FDC3EF9DE5F012358E500C301809D196E8
:102EE0004005EEF0A3EFF01227895026200423902E
:102EF0000020E0600414F08055C3D196500EA3E08A
:102F000004F07006900018E004F0803CD203F170E9
:102F10008036F167502A200427900020E0600414D6
:102F2000F0802BB1CDFFAEF0D195400EA3E024FF91
:102F3000F0900018E034FFF08004C203F1708008C4
:102F400020180B300408C2049000207406F03018DA
:102F50000790001F7420F02290001FE0B4010714B6
:102F6000F0C21A1231EF22E54BB40202D322C3227F
:102F700090001E7404F0900018EEF0A3EFF0D2045D
:102F800022121F2F7F02F19EE5266008B1D3FF9029
:102F90000018C18E900018E4F0A374C8F022E41267
:102FA0000484FE123F83B507077401120484800471
:102FB0000EBE0FEFAF06EF75F00EA4244EF97409A4
:102FC00035F0FA7BFF2212013E02039B90000502BE
:102FD0000533E490005EF0F55122E4FFFE7D7A7C3B
:102FE000442290001CE0FEA3E022C2AF007596AA26
:102FF00075965553977F2275F5037530017531F439
:103000008023E5F520E726E531453070028026E58E
:1030100033153370021532E533453270E5E531156D
:1030200031700215307532017533F480D5E4F5F551
:10303000E5F530E11075F580000000121FD87F051E
:10304000121FD5D322C3228F2B8B2C8A2D892EE5DC
:103050002B25E054FEF5F4852FF675F503122FFAB3
:10306000500122E52B25E04401F5F4122FF7500121
:1030700022AB2CAA2DA92EE5F612048475F504E5E1
:10308000F530E5FBC3228B278A28892911D4F52F37
:103090007B007A00792A7F6211475002C322900098
:1030A0003FE075F003A4AB272529F9E52835F0FAB0
:1030B000900001120457F4522A9000021204574261
:1030C0002AAA28A92911D4FBAD2A7F6211E4500253
:1030D000C322D32290003FE075F003A4F58285F06F
:1030E000830204578D2BEF25E054FEF5F48BF61286
:1030F0002FF7500122852BF675F501122FFA50019A
:103100002275F504E5F530E5FBC32212132D752F6A
:10311000097F62114750037F0522E52730E7037FCF
:103120000122E52730E3037F0322E52730E0037F18
:10313000042212132D752F0A7F62114750037F0559
:1031400022E5277F0030E1027F0222AB077AA090C0
:10315000002DE07043C3EB64809480403BD3EB646C
:103160008094964007EB6480949F402C9000261238
:10317000070B000000003199A3EBF0A37401F0EB02
:1031800030E40543DF80800353DF7F53DEF0EB54F0
:103190000F42DEDAFE43DF0222E490002AF0A3F0C1
:1031A0002275C900B21D301D02D21E325388EFD2E3
:1031B0001C325388CF5389F0438901E4F58CF58A9A
:1031C000F5CE75CB0B75CADB75CD5D75CC66F5C9D3
:1031D00075CF8075A8A2C21EC21D75C89122301B72
:1031E00007C2AF0075FBAA2275FB5500D2AF22E4DF
:1031F000FFD21B31DE3002010F30060343070230DD
:103200000103430704900034EFF0900018E0FFA39F
:10321000E0900032CFF0A3EFF07B017A0079327DAD
:10322000039149900035EFF0201A0E900052E0FF14
:10323000900035E0B507028076201A0FC390005148
:10324000E094FE900050E09400401B7B007A0079EF
:10325000287D007C027F1D51B3E4FC7F1D51B3E447
:10326000900050F0A3F0E4F528900050E0FEA3E0B9
:103270007802C333CE33CED8F97C002528FDEC3E4E
:10328000FC74322528F9E43400FA7B017F1951B32C
:103290000528E528C3940440D0900051E004F07064
:1032A00006900050E004F0900035E0900052F0C22B
:1032B0001B21DE8F2CE52CB4190512043EF5FEED22
:1032C000F5FCECFFEFF5FD00852CFF000000000091
:1032D00000E5FF20E0FBE52CB41105E5FE120484B7
:1032E000228B268A278928E4F52AF52BD21B31DE8A
:1032F000E4F529AE2AE52B7802C333CE33CED8F9D4
:103300007162940440EDAB26AA27A9287D03914958
:10331000AB26AA27A928900003120457B507130566
:103320002BE52B7002052AC394FEE52A6480948065
:1033300040BED3E52B9400E52A648094804008E5E4
:103340002B152B7002152AE4F529AE2AE52B7802FD
:10335000C333CE33CED8F97162940440EDAE2AAFB8
:103360002B227C002529FDEC3EFCAB267E00E528C7
:103370002529F9EE3527FA7F1151B30529E529C32F
:10338000227B017A00792E51E1900050EEF0A3EFFC
:10339000F07B017A00792E7D039149900031E06F36
:1033A000704E900030E0C330E201D39201900030C3
:1033B000E0C330E101D39206900030E0C330E00179
:1033C000D3920290002EE0FFA3E0900018CFF0A36C
:1033D000EFF0900031E0900052F0900051E004F0E6
:1033E0007006900050E004F0B196400E71FE800A25
:1033F000912AD202D21A31EFB199C21B21DE2002EA
:103400000B912AC21A31EF751F06910D22752664A1
:10341000C21B31DE7F1E7E001216B0917AB196502B
:10342000021526E52670ED0229F3122F81C202D281
:1034300006D220120FFB7F337E337D8BB1A4600553
:103440004003D38001C39201228B2C8A2D892E7FC9
:10345000FFAB2C052EE52EAA2D7002052D14F912B6
:10346000043E62077E08EF30E70725E06407FF802F
:1034700004EF25E0FFDEEFDDD822D1E05017900009
:1034800059E0C36480948C5005E004F0800CE49013
:103490000059F0A17AE4900059F0E51FB40A004009
:1034A00002A17E9034AAF82828730234C80234D2CC
:1034B0000234D70234F80234DC0234F80234DE027B
:1034C0003535023535023535C283C281E490005A64
:1034D000F022C283D28122D283C281228015B17FA1
:1034E0004F7F8060027F0090005AEFF0B1834F70F1
:1034F00002A17AD283D28122C28190005AE0FF5485
:103500007FFEE51F7D00B403027D03C3EDB18E5045
:103510000C0EEF548090005AF04EF0800EB17F4FA9
:103520007F8060027F0090005AEFF0B17F4FC36050
:1035300001D392832290005AE0547FF0E51F640883
:103540006005E51FB409047F0680027F0A90005AD7
:10355000E0FED3EFB18E4004E4F51F2290005AE064
:10356000FF04F0EF75F00212041CAFF0EF600BE502
:103570001FB40903D28122D28322C283C281229046
:10358000005AE05480FF3395E0229526E5256480BB
:10359000F8EE64809822A29322751F05810D7F6644
:1035A0007E667D267C40AB16AA15A914A8130202DC
:1035B000E4200C071227D8FFC20E22900042120D01
:1035C000E0D1D5FF900045E03EFE30E703E4FEFF8A
:1035D000900040E0FCA3E0FDC39FFFEC9EFEC3EF24
:1035E0009486EE648094815013ED247AFEEC34FED0
:1035F000900045F0A3CED1917E017F86900041E0FE
:10360000246AFD900040E034FFFCC3EF9DECB18ED6
:103610005002D20E228D2CA907E9600CE50A24D1B4
:10362000FBE50934FFFA800AC3742D950AFBE49583
:1036300009FAEA30E703E4FAFBD1FC40028020D12A
:10364000EB74309BFD74759AFCC3EF9DECB18E500A
:103650000AE52C60067E007F0180047E007F00EF7B
:103660004E6009EB25E0FBEA33FA8003E4FAFB0B3A
:10367000BB00010AE96006AE02AF038007C3E49B0A
:10368000FFE49AFE900043E02FF0900042E03EF00D
:1036900022F0E4900042F0A3F0228E2D8F2E122211
:1036A000A71227CB700280281227B2FBAAF0900045
:1036B00042120DE0D1D5900045E03EC3EB952EFFC0
:1036C000EA952DFE900045F0A3EFF0EE30E704E41C
:1036D000120C8380BD7D0C1204FD900046E02F2269
:1036E000900001E06002C322A20E22900042E0FEA0
:1036F000A3E0FF7CFF7DFF120496C322900042E00E
:10370000FEA3E0FFD39400EE6480948022EF24FEB9
:10371000600E24FE60102403701BC283D281800AD5
:10372000D283C2818004D283D2817F147E0012169C
:10373000B0C283C2812275260AF192E4900001F0A2
:10374000120FFB122FDA121FCC122FC690000EEEB2
:10375000F0A3EFF0120DE8D526E612270930193153
:10376000120EC6702C3001217F04F10D7FC87E003F
:103770001216B07F04F10D7526321526E526600974
:103780007F0A7E001216B080F1D21790000B7412DF
:10379000F022900002747FF0A374FEF0A37480F016
:1037A000A37402F0E490000AF090000612070B00E8
:1037B000000000228F278D28E54C30E705F10DE44D
:1037C000F54CE54C7F0030E102AF278F1FE54C70D0
:1037D0000BF51F754C0A900001E528F02290F129A5
:1037E0007411F090F129E0541170F8222093037FB6
:1037F0000122E5B55408FF22E54B6002D322E54AD9
:10380000C36001D32290000DE06002C322201702A2
:10381000D32290000BE06002C3221237F84002C2AC
:103820001711281227BEC322E54A6009E549600541
:10383000E4F54AF54922E4FE74462EF8E630E72422
:10384000547FFDEE700B7C053005027C02AF0480D6
:10385000027F04EDC39F50010DE65480F674462E9E
:10386000F8E64DF60EBE02D022E54B7004E54A7034
:10387000037F0022AF4922E54B14FFD3648094807C
:103880004001227F00229000017401120EC5600ADF
:10389000E51F6003754C08E4F51F22900001E070FD
:1038A00011118611E4AB16AA15A914A813122FC67C
:1038B00011DB22E51B6023900001E0701D1186D210
:1038C00014E50AAE0930E707FF7CFF7DF68006AFFE
:1038D0000A7C007D0A12049611DB22900010EEF0A3
:1038E000A3EFF022E4FFFE7DC87C4222E54C701677
:1038F000EF4E7005754C808008EF25E025E014F54B
:103900004C900001EDF022E54D14600E14600F1490
:1039100060102403700F751F0122751F0422751F8C
:103920000222751F032290000BE0700690000DE04C
:103930006004D2188032300204C218802B120EC6E6
:10394000640E6004D2188020E54DB40304D21880C0
:1039500017900000E07003742BF0900000E0D39407
:103960000340028001D39218301802809AE4F51FB8
:1039700022E54CD39409403BE54C24F8C31314FFD3
:10398000301407E50A20E7020F0F201413D390002C
:1039900011E094E7900010E06480948340020F0FE0
:1039A000EF3395E0FE74032FF58274003EF583E457
:1039B00093FF227F002290000DE07003740DF0222F
:1039C000E54D64036004C218801A120EC614600E1E
:1039D00024F8600A24FD24FD5004240F7004C2184A
:1039E0008002D218201807E490000CF08013900099
:1039F0000CE0FF700404F08008EFD394744002D30D
:103A000022C322752A457529317528C8752700AF4C
:103A10002AAE29AD28AC27C004C005C006C00712D5
:103A20002FDA1227A9122FC6AB07AA06A905A804E8
:103A3000D007D006D005D004120615514B90003A9D
:103A4000EEF0A3EFF0D2112212013E8F2A8E298DC3
:103A5000288C2722AD07AC06EC120362E4FBFA794E
:103A60006C784212013EE4FBFA794878431202472F
:103A7000514B7BA47A70797D783F5148E4FBFA7909
:103A80004078405148C004C005C006C007122FDA74
:103A90001227A912013EA804A905AA06AB07D00760
:103AA000D006D005D004120247514B51B78099512E
:103AB000549000360206FFE4FBFA79C8784222905F
:103AC000003CE0600214F02290005BE0700204F021
:103AD00022301502616B301602616BE490005BF0DE
:103AE000E54D600261C61227B2FFC390001DE09F42
:103AF000E5F071C798506E90005CE0FF700404F030
:103B00008008EFC39409500261C690005C7401F014
:103B1000122FCCFFAEF0D390001BE09FEE6480F834
:103B200090001AE06480984007EEF0A3EFF0800E5A
:103B300090001BE02432F090001AE03400F01227CD
:103B4000B2FFAEF0D390001DE09FEE71C798400623
:103B5000EEF0A3EFF02290001DE024FAF090001C9C
:103B6000E03400F022E490005CF022E490005CF08D
:103B700051C830160C90005BE0D394044003022639
:103B8000C790005BE0D3940A403CD390001DE094C2
:103B9000F471CA9481400CA3E02406F090001CE06C
:103BA00034FFF0D390001BE0942290001AE0648070
:103BB000948B400CA3E024E7F090001AE034FFF06F
:103BC00090005B7401F0226480F890001CE0648037
:103BD000228D287E02122F675004D21880051227EA
:103BE00089921820160F7E0A301503301807E490CA
:103BF000005BF0800251C890005BE0D39E4018EF5C
:103C0000600280063018063016030226C7E49000D2
:103C10005BF0AF281223272290005CE06008C39479
:103C2000095003E004F090005BE06008C3940B507F
:103C300003E004F02220150D20160AE54D7006124F
:103C400027B2122E8A227F021223279135D2082210
:103C5000900047E0600214F022900054E0600214EB
:103C6000F022900053E0601724FE602214603C2490
:103C7000027042900054E0D3940040217F022290D1
:103C80000055744BF09000537402F07F01229000B5
:103C900055E014F0E0D3940040037F0122900054DB
:103CA0007418F09000537403F0800A900054E07090
:103CB00004900053F07F0022E55170078D51900071
:103CC0005EEFF02290005EE0B407005061903CD4BB
:103CD000F8282873023CE9023CF2023D0E023D1432
:103CE000023D23023CF2023D29E4F5517D0B7F01A8
:103CF000803A7F02B13150037F012290005EE0B430
:103D000001067D077F0280247D237F06801E7D23A0
:103D10007F0380187F06B13150037F01227D077F2A
:103D20000480097D0B7F058003E4FDFF91B87F00CF
:103D300022AB07EB3395E0FEEF25E0FDEE33FCAF61
:103D400051EF3395E0FE1204FDEB14D36480F8EDDF
:103D50006480984002D322C322E5516002155122AB
:103D6000900057E0700504F0754C0F22900057E06A
:103D700024FE606D147002C10514602124036002EA
:103D8000C116E54CD3940640037F0122E54C600246
:103D9000C116900058F0900056F0A38076D119FF1C
:103DA000642D6004EFB420149000577403F0EFB456
:103DB0002D05754C248022754C14801DD119540F8B
:103DC000FF70089000567437F08008EF25E025E07A
:103DD00014F54C9000577402F0900058E004F08005
:103DE00035900056E07015E54C7009754C0CA374C5
:103DF00003F08022E54C30E11D7F0122900056E067
:103E000014F07F0122E54C700DD11990005770031A
:103E1000F080037404F07F0022900058E090002EA0
:103E20009322900001E07006900057E060037F014C
:103E300022D3900041E094001227D19480500712C1
:103E40000EC654FE60037F01227F002290001FE017
:103E500054FE6003E014F090001EE0600714F0E0F0
:103E60007002C203900021E0600214F0900015E09F
:103E70007002A3E0600E900016E024FFF0900015A1
:103E8000E034FFF0900013E0600214F022120EC63E
:103E9000B40B02800A122789400B122F674006E4F8
:103EA000900017F022900017E0FF541FFE7013EFF0
:103EB00020E60F122F677D8050027D20EF4D90008D
:103EC00017F0900017E054E0F0C3EE648094865041
:103ED00007E020E6030E8002E4FE900017E04EF0BB
:103EE00022E4FFEF90000893FE90004DE0FDEEB558
:103EF0000502C3220FBF03EBD32290004DE0FF70F9
:103F00000590004CF02290004CE004F0F16F240F7B
:103F1000FFE43EFEE0F1217480984002E4F022E0EC
:103F2000FDC39FEE6480F82290004CE0FFC394052F
:103F3000500BEFC394035033EF04F51F2290004D54
:103F4000E0FFF16F2405FFE43EFE90004CF11F748A
:103F500080985017ED24FBFFEC34FFFE7D03120424
:103F6000A8EF20E004751F02228000E4F51F227EE6
:103F7000007C007D06120496EF2290003DE0FEA337
:103F8000E0FF22EE75F00EA4244EF582E43409F52C
:103F900083E49322E50A9FEE6480F8E50964809843
:103FA000229000157401F0A374E0F02290003A749E
:103FB00017F0A3746FF022F583E493FE740193FF6E
:103FC0002290000C120457FF22E4FFFE7D807C3F0C
:103FD00022E525F0A3E526F02290003AE0FAA3E0DE
:103FE00022F090003C7408F02290003CF090003FDA
:013FF00022AE
:00000001FF
